:100000000C9494000C941A130C9441130C94BC009F
:100010000C94BC000C94BC000C94BC000C94BC0070
:100020000C94BC000C94BC000C94BC000C94BC0060
:100030000C94BC000C94BC000C94BC000C94BC0050
:100040000C9468130C94BC000C9433160C94651635
:100050000C94BC000C94BC000C94BC000C94BC0030
:100060000C94BC000C94BC0038033D0342034703CE
:100070004C03510356035B036003650372756E2DD9
:100080006272696467650A000A000A0000000008DD
:10009000000201000003040700000000000000004F
:1000A000010204081020408001020408102001020F
:1000B00004081020040404040404040402020202DC
:1000C00002020303030303030000000025002800CD
:1000D0002B0000000000240027002A004E414E495A
:1000E0004E495459494E46CDCCCC3D0AD7233C17F6
:1000F000B7D13877CC2B329595E6241FB14F0A0043
:100100000020410000C84200401C4620BCBE4CCA32
:100110001B0E5AAEC59D7400AB048C09450B1B0D1C
:1001200015139516BC04490B11241FBECFEFD8E060
:10013000DEBFCDBF13E0A0E0B1E0E8EDF3E402C024
:1001400005900D92A433B107D9F724E0A4E3B3E0FE
:1001500001C01D92A434B207E1F711E0C4E2D1E07E
:1001600004C02297FE010E94C71CC831D107C9F7FD
:100170000E946C1A0C94DF210C940000CF93DF9343
:10018000CDB7DEB7CA55D1090FB6F894DEBF0FBEA2
:10019000CDBF1C821B8288EE93E0A0E0B0E08D838F
:1001A0009E83AF83B88787EF92E09A83898384E543
:1001B00093E09E878D871A8A1B8A1C8A68E171E00A
:1001C000CE018B5A9F4F0E94AE19BE016B5A7F4FD2
:1001D000CE0101960E94BB0ECE018B5A9F4F0E940A
:1001E00040196EE271E0CE018B5A9F4F0E94AE190A
:1001F000BE016B5A7F4FCE0101960E94AD0DCE011C
:100200008B5A9F4F0E944019CE0101960E94740E96
:1002100080913403909135031816190634F463E382
:1002200071E08FE593E00E946617CE0101960E946F
:10023000B40EC65ADF4F0FB6F894DEBF0FBECDBF67
:10024000DF91CF910895CF92DF92EF92FF920F93BB
:100250001F93CF93DF93CDB7DEB7CA56D1090FB640
:10026000F894DEBF0FBECDBF1C821B8288EE93E0E8
:10027000A0E0B0E08D839E83AF83B88787EF92E0E4
:100280009A83898384E593E09E878D871A8A1B8AE7
:100290001C8A69E471E0CE018B5A9F4F0E94AE190F
:1002A000BE016B5A7F4FCE0101960E94BB0ECE015C
:1002B0008B5A9F4F0E9440196DE471E0CE018B5A1A
:1002C0009F4F0E94AE19BE016B5A7F4FCE0101961F
:1002D0000E94AD0DCE018B5A9F4F0E94401961E5DF
:1002E00071E0CE018B5A9F4F0E94AE19BE016B5A2E
:1002F0007F4FCE0101960E94AD0DCE018B5A9F4FCC
:100300000E944019CE0101960E94740E8E010B5A74
:100310001F4F780189E0E80EF11CCE0101960E9482
:10032000780D1816190624F40E151F0509F05FC084
:10033000CE018B5A9F4F0E94521F60934A037093C5
:100340004B0380934C0390934D0369E471E0CE011D
:10035000825A9F4F0E94AE19BE01625A7F4FCE0152
:1003600001960E94BB0ECE01825A9F4F0E944019F7
:100370006DE471E0CE01825A9F4F0E94AE19BE011A
:10038000625A7F4FCE0101960E94AD0DCE01825A76
:100390009F4F0E9440196CE671E0CE01825A9F4F38
:1003A0000E94AE19BE01625A7F4FCE0101960E9493
:1003B000AD0DCE01825A9F4F0E944019CE01019689
:1003C0000E94740E8E010C591F4F7801E3E0EE0E6F
:1003D000F11CD02EC12ECE0101960E94780D181668
:1003E00019066CF40E151F0509F068C008C0CE018F
:1003F00001960E94820DF80181938F018ECF8D2D81
:100400009C2D0E94561F909349038093480369E4F2
:1004100071E0CE01825A9F4F0E94AE19BE01625A0E
:100420007F4FCE0101960E94BB0ECE01825A9F4F94
:100430000E9440196DE471E0CE01825A9F4F0E94E4
:10044000AE19BE01625A7F4FCE0101960E94AD0DDA
:10045000CE01825A9F4F0E9440196DE771E0CE0194
:10046000825A9F4F0E94AE19BE01625A7F4FCE0141
:1004700001960E94AD0DCE01825A9F4F0E944019F5
:10048000CE0101960E94740E8E0107591F4F78010C
:10049000F2E0EF0EF11C6801CE0101960E94780D8A
:1004A000181619069CF40E151F0581F0CE01019651
:1004B0000E94820DF80181938F01EECFCE0101964B
:1004C0000E94820DF80181938F0185CFC6010E94A1
:1004D000561F909347038093460369E471E0CE0171
:1004E000825A9F4F0E94AE19BE01625A7F4FCE01C1
:1004F00001960E94BB0ECE01825A9F4F0E94401966
:100500006DE471E0CE01825A9F4F0E94AE19BE0188
:10051000625A7F4FCE0101960E94AD0DCE01825AE4
:100520009F4F0E94401964E971E0CE01825A9F4FAB
:100530000E94AE19BE01625A7F4FCE0101960E9401
:10054000AD0DCE01825A9F4F0E944019CE010196F7
:100550000E94740E8E0109591F4F7801CE01019639
:100560000E94780D1816190644F4CE0101960E94D7
:10057000820DF80181938F01F1CFC7010E94741F92
:1005800060933E0370933F03809340039093410335
:1005900069E471E0CE01825A9F4F0E94AE19BE01FC
:1005A000625A7F4FCE0101960E94BB0ECE01825A45
:1005B0009F4F0E9440196DE471E0CE01825A9F4F17
:1005C0000E94AE19BE01625A7F4FCE0101960E9471
:1005D000AD0DCE01825A9F4F0E9440196BEA71E027
:1005E000CE01825A9F4F0E94AE19BE01625A7F4FC0
:1005F000CE0101960E94AD0DCE01825A9F4F0E94FE
:100600004019CE0101960E94740E8E01025A1F4FAE
:100610007801F2E0EF0EF11CCE0101960E94780DF8
:100620001816190624F40E151F0509F05BC0CE013B
:10063000825A9F4F0E94561F8A309105A0F0CE012A
:1006400001960E94B40EC659DF4F0FB6F894DEBF74
:100650000FBECDBFDF91CF911F910F91FF90EF9013
:10066000DF90CF900895FC01EC5CFF4F0C94C51C0B
:1006700088E79EE1A0E0B0E02CC080EA98E2A0E02C
:10068000B0E027C080EF9CE3A0E0B0E022C080E4AF
:1006900091E5A0E0B0E01DC082E19AE7A0E0B0E003
:1006A00018C084EE92EAA0E0B0E013C084E294EFB8
:1006B000A0E0B0E00EC088E498EEA1E0B0E009C090
:1006C00080E990EDA3E0B0E004C080E291EAA7E009
:1006D000B0E08093420390934303A0934403B0930C
:1006E0004503ADCFCE0101960E94820DF8018193A2
:1006F0008F0192CF60914A0370914B0380914C031C
:1007000090914D030E94551BAB01BC018CE793E017
:100710000E949D1060914803709149038CE793E01B
:100720000E945F1140914203509143036091440342
:10073000709145038CE793E00E949B116091460302
:10074000709147038CE793E00E943B1264E370E0F2
:100750008CE793E00E947C1240913E0350913F034E
:1007600060914003709141038CE793E00E945E1218
:1007700060E070E08CE793E00C94F912CF93DF9384
:10078000CDB7DEB7CA55D1090FB6F894DEBF0FBE9C
:10079000CDBF21E04CEB51E066E773E0CE0101965E
:1007A0000E940E0D6EE473E0CE0101960E9439178F
:1007B000CE0101960E94C80CCE0101960E94FB0C4E
:1007C000C65ADF4F0FB6F894DEBF0FBECDBFDF9124
:1007D000CF91089526E040E052EC61E070E0809116
:1007E0005D0390915E030E94D11584E593E00E9421
:1007F000850886E793E00E940C0D80913403909168
:1008000035031816190684F48FE593E00E94320B25
:1008100060ED71E08FE593E00E9447176EE473E0AE
:100820008FE593E00E9454170E94BE030E942301AB
:100830008091340390913503181619060CF062C0AC
:1008400060EE71E08FE593E00E94661765E072E06C
:100850008FE593E00E94471740914A0350914B0364
:1008600060914C0370914D0322E030E08FE593E0FE
:100870000E942E1964E172E08FE593E00E94471711
:1008800060914803709149034AE050E08FE593E09E
:100890000E94191866E272E08FE593E00E94471704
:1008A00060914603709147034AE050E08FE593E082
:1008B0000E94191866E372E08FE593E00E944717E3
:1008C000409142035091430360914403709145036A
:1008D0002AE030E08FE593E00E94311862E472E094
:1008E0008FE593E00E94471740913E0350913F03EC
:1008F00060914003709141032AE030E08FE593E07E
:100900000E94311860914A0370914B0380914C030F
:1009100090914D030E94551BAB01BC018CE793E005
:100920000E94F710892B69F480913403909135036C
:100930001816190634F463E572E08FE593E00E941F
:1009400066170E947A0368EB7BE080E090E00E94EB
:10095000E1130C94BE0064E672E08EE493E00E9422
:10096000AE190E94B21360933A0370933B038093D5
:100970003C0390933D0308958EE493E00C9440195A
:100980009F92AF92BF92CF92DF92EF92FF920F931E
:100990001F93CF93DF93CDB7DEB7C45BD1400FB6C3
:1009A000F894DEBF0FBECDBF60E070E08CE793E04F
:1009B0000E94A3127C01009709F450C18091340376
:1009C00090913503181619069CF468E772E08FE5DC
:1009D00093E00E9447174AE050E0B7018FE593E0AB
:1009E0000E94111864E872E08FE593E00E94661798
:1009F000CE0101966C015C0100E010E08CE793E011
:100A00000E94D60F892B29F0011591E0190709F0F2
:100A1000F0C080913403909135031816190634F410
:100A200065E273E08FE593E00E94661786E793E046
:100A30000E940C0D21E04FE852E066E773E0CE0122
:100A40008F5F9E4F0E940E0D5601C5018C199D09A6
:100A5000801791074CF4F50161915F01CE018F5F22
:100A60009E4F0E944917F1CFCE018F5F9E4F0E948B
:100A7000C80C68EE73E080E090E00E94E113C35A76
:100A8000DE4F19821882CD55D14048EE53E060E028
:100A900070E0C15ADE4F488359836A837B83CF5508
:100AA000D14087EF92E0C55ADE4F99838883CB55BA
:100AB000D14084E593E0C959DE4F99838883C756B6
:100AC000D140C459DE4F1882CC56D140C359DE4FB5
:100AD0001882CD56D140C259DE4F1882CE56D14031
:100AE00068E171E0CE0181559E4F0E94AE19BE01B2
:100AF00061557E4FCE01855A9E4F0E94BB0ECE019E
:100B000081559E4F0E9440196FE872E0CE018155D9
:100B10009E4F0E94AE19BE0161557E4FCE01855A8F
:100B20009E4F0E94AD0DCE0181559E4F0E944019EF
:100B30008CE793E00E94AD0F4AE0BC01CE018155E5
:100B40009E4F0E94FC19BE0161557E4FCE01855A11
:100B50009E4F0E94AD0DCE0181559E4F0E944019BF
:100B60004AE0B701CE0181559E4F0E94FC19BE019B
:100B700061557E4FCE01855A9E4F0E94AD0DCE012C
:100B800081559E4F0E944019CE01855A9E4F0E946A
:100B9000740ECE01855A9E4F0E94780D18161906C4
:100BA00094F4CE01855A9E4F0E94820D2091340309
:100BB000309135031216130664F7682F8FE593E022
:100BC0000E944917E6CF809134039091350318169F
:100BD000190624F48FE593E00E94290ACE01855A74
:100BE0009E4F0E94B40ECE018F5F9E4F0E94FB0C61
:100BF00035C08CE793E00E94E40F982EF5018193B5
:100C00005F012091340330913503121613061CF551
:100C10006BE872E08FE593E00E9447174AE050E0EE
:100C2000B8018FE593E00E9411186DE872E08FE53E
:100C300093E00E944717692D772767FD709540E183
:100C400050E08FE593E00E94111860E472E08FE5B8
:100C500093E00E9447170F5F1F4FD0CECC54DE4F5A
:100C60000FB6F894DEBF0FBECDBFDF91CF911F91BD
:100C70000F91FF90EF90DF90CF90BF90AF909F903B
:100C80000895CF92DF92EF92FF920F931F930E94ED
:100C9000C0040E94B21360933603709337038093AD
:100CA00038039093390300913A0310913B0320914C
:100CB0003C0330913D036B017C01C01AD10AE20A6A
:100CC000F30A00910601109107012091080130916B
:100CD00009010C151D052E053F0584F460933A03A8
:100CE00070933B0380933C0390933D031F910F91BE
:100CF000FF90EF90DF90CF900C94BE001F910F916A
:100D0000FF90EF90DF90CF900895FC012381348114
:100D10002627022E2295207F2025032E322F229572
:100D20002F700226269532272327220F220F220F0B
:100D30002025FC01348323830895CF93DF93EC01B6
:100D40008D819E81DC01ED91FC916C810190F0819F
:100D5000E02D09958D819E81DC01ED91FC91019042
:100D6000F081E02D6B81DF91CF9109948F929F925A
:100D7000AF92BF92CF92DF92EF92FF92CF93DF9329
:100D8000EC016B010E94B2134B015C01E12CF12CD0
:100D90008D819E81DC01ED91FC910680F781E02D33
:100DA000099597FF0DC00E94B213681979098A0945
:100DB0009B096C157D058E059F0550F38FEF9FEF06
:100DC000DF91CF91FF90EF90DF90CF90BF90AF90E9
:100DD0009F908F900895CF93DF93EC018D819E813A
:100DE000DC01ED91FC910480F581E02D0995181648
:100DF000190654F48D819E81DC01ED91FC910680F1
:100E0000F781E02D0995EACFDF91CF9108952F92D8
:100E10003F924F925F926F927F928F929F92AF928A
:100E2000BF92CF92DF92EF92FF920F931F93CF93D7
:100E3000DF93CDB7DEB72D970FB6F894DEBF0FBEA8
:100E4000CDBF3C011B013C832B83BF82AE82580186
:100E5000AC0CBD1CA40EB51EBD824B2C512CCA017E
:100E6000860F971F99878887D901A00FB11FBB876D
:100E7000AA87F601EE0DFF1DFD87EC87D3011896BA
:100E80008C91581608F026C1EFEFFFEFD3011496AE
:100E9000FC93EE93139715968D919C911697DC0118
:100EA000ED91FC910190F081E02D6FEF09956FEFCE
:100EB000C3010E948506F30185819681DC01ED91D5
:100EC000FC910190F081E02DD3016C910995F30123
:100ED0006081C3010E948506D30115968D919C9176
:100EE0001697DC01ED91FC910190F081E02D6D8170
:100EF0000995642DC3010E948506F30185819681C1
:100F0000DC01ED91FC910190F081E02D6A2D0995B5
:100F10006A2DC3010E948506610188859985C816DE
:100F2000D906A1F0F301858196818601DC01ED915E
:100F3000FC910190F081E02DD6016D916D01099534
:100F4000F8016081C3010E948506E7CFCB80DC8079
:100F50008A859B85C816D906B1F0D30115968D9167
:100F60009C9116978601DC01ED91FC910190F08136
:100F7000E02DD6016D916D010995F8016081C301E5
:100F80000E948506E5CF87018C859D850817190786
:100F9000B1F0D30115968D919C9116976801DC01F3
:100FA000ED91FC910190F081E02DD8016D918D01C2
:100FB0000995F6016081C3010E948506E5CFC30152
:100FC0000E949D0664E670E0C3010E94B6068F3F52
:100FD000910509F074C0EFEFFFEFD3011496FC9375
:100FE000EE9313976FEFC3010E94850665E070E0F2
:100FF000C3010E94B606D3016C91262F30E0821700
:10100000930709F05CC0C3010E9485066AE070E0A6
:10101000C3010E94B6068C0197FD51C0682FC30121
:101020000E9485066AE070E0C3010E94B6066C016A
:1010300097FD45C0682FC3010E9485060A83198267
:1010400009811A810C0D1D1DC12CD12C65E070E0A9
:10105000C301C016D106A1F0C814D90489F00E94BA
:10106000B60697FD09C0EE81FF81EC0DFD1D808362
:10107000682FC3010E948506BFEFCB1ADB0AE6CFBB
:101080000E94B6066C0197FD1AC065E070E0C301CE
:101090000E94B60697FD13C0DC2CCC24C80ED91EC6
:1010A000F301838194818C159D0549F480818F5FC4
:1010B0008083C8018016910678F4C4010DC0539452
:1010C00064E670E080E090E00E94E113C3010E94BA
:1010D000EB06D4CE8FEF9FEF2D960FB6F894DEBFC0
:1010E0000FBECDBFDF91CF911F910F91FF90EF9079
:1010F000DF90CF90BF90AF909F908F907F906F9038
:101100005F904F903F902F9008953F924F925F9243
:101110006F927F928F929F92AF92BF92CF92DF9207
:10112000EF92FF920F931F93CF93DF93CDB7DEB76C
:101130002E970FB6F894DEBF0FBECDBF3C01DC0189
:1011400017968C9117978111CFC081E017968C93D9
:10115000C3010E94EB0668EE73E080E090E00E941D
:10116000E113F30185819681DC01ED91FC9104800E
:10117000F581E02D09951816190654F355E0552E02
:101180004424439462E3362EEEE0F1E0DE0116964D
:10119000852D01900D928A95E1F7F3014086812C0F
:1011A000912CA12CB12CC12CD12CE12CF12C00E0E4
:1011B00010E020E030E045E050E0BE016A5F7F4F84
:1011C000C3010E94070763E0D30115968D919C919E
:1011D00016970E9449176AEF70E080E090E00E9445
:1011E000E1136AE870E0F301858196810E94161789
:1011F0006AEF70E080E090E00E94E11368E870E040
:10120000D30115968D919C9116970E94161764EF45
:1012100071E080E090E00E94E1136CE770E0F30180
:10122000858196810E94161764EF71E080E090E05E
:101230000E94E113C3010E94EB06E3E1F1E0DE014D
:101240001196852D01900D928A95E1F7D30118969C
:101250003C9244E0842E912CFE013B965F0120E0FD
:1012600030E045E050E0BE016F5F7F4FC3010E9458
:1012700007078F3FFFEF9F0739F468EE73E080E0C8
:1012800090E00E94E11380CF2B852111FFCF0497BE
:1012900011F52C8530E02053310944E6429FC0010E
:1012A000439F900D11242D8530E0205331096AE0D1
:1012B000629FA001639F500D1124840F951F2E85FE
:1012C00030E020533109820F931FD30112969C9373
:1012D0008E93119705C084E690E0F3019283818399
:1012E00082E3D30118968C932E960FB6F894DEBF46
:1012F0000FBECDBFDF91CF911F910F91FF90EF9067
:10130000DF90CF90BF90AF909F908F907F906F9025
:101310005F904F903F9008951092540381EA93E0BC
:1013200090935A038093590310925B0310925C03CD
:1013300090935E0380935D0308954F925F926F9246
:101340007F928F929F92AF92BF92CF92DF92EF9255
:10135000FF920F931F93CF93DF931F92CDB7DEB70A
:101360003C019B012A01DC0152968C91811105C040
:101370008B017B01E40EF51E35C080E58983812C4D
:10138000912CA12CB12CC12CD12CE12CF12C8A0157
:1013900041E050E0BE016F5F7F4FF301848595858A
:1013A0000E94070722C0D3015596ED91FC915697F4
:1013B00053968C91539791E0980F53969C93D80134
:1013C0009D918D01E80FF11D9083F301938984892C
:1013D000981308C00190F081E02D0284F385E02D80
:1013E000C30109950E151F05F1F6C2010F90DF919B
:1013F000CF911F910F91FF90EF90DF90CF90BF9012
:10140000AF909F908F907F906F905F904F900895D6
:101410008F929F92AF92BF92CF92DF92EF92FF9204
:101420000F931F9348015901C12CD12CE12CF12CB1
:1014300000E010E020E030E00E9407071F910F91CC
:10144000FF90EF90DF90CF90BF90AF909F908F90E4
:1014500008950F931F93CF93DF93EC018A89811135
:101460000EC04B8950E06D897E8900E010E020E0DD
:1014700030E08C859D850E94080A81E08B8BDF918E
:10148000CF911F910F9108950F931F93CF93DF93E7
:1014900000D0CDB7DEB7DC0152968C9152978823ED
:1014A00099F080E589836A8300E010E020E030E075
:1014B00042E050E0BE016F5F7F4F1C968D919C9182
:1014C0001D970E94080A1FC05596ED91FC915697F2
:1014D00053968C91539791E0980F53969C93539702
:1014E000E80FF11D608353969C91539754968C910D
:1014F0005497981308C0ED91FC9111970284F385DD
:10150000E02DCD01099581E090E00F900F90DF91E3
:10151000CF911F910F910895FC011382128248EE22
:1015200053E060E070E0448355836683778381EA0B
:1015300092E09183808384E593E095878487168683
:101540001786118A108A81E0828B0895CF93DF93EA
:10155000EC018A89811108C08D899E89009711F05C
:101560000E94811A81E08A8BDF91CF910895EF92DA
:10157000FF920F931F93CF93DF9300D0CDB7DEB7C9
:101580007C01FC018685811114C0178680E7898360
:1015900080E28A832089318900E210E042E050E055
:1015A000BE016F5F7F4F848595850E94080AF70111
:1015B00086870F900F90DF91CF911F910F91FF9031
:1015C000EF900895CF93DF93EC010E94B70A8E85C8
:1015D00090E0DF91CF910895CF93DF93EC010E94CB
:1015E000B70A8E85882369F081508E87E889F9894A
:1015F0008F8591E0980F9F87E80FF11D808190E023
:1016000002C08FEF9FEFDF91CF910895CF93DF93CB
:10161000EC010E94B70A8E85882341F08F85E88906
:10162000F989E80FF11D808190E002C08FEF9FEFF4
:10163000DF91CF910895CF93DF93EC010E94A60A2A
:1016400088899989009721F00E94811A198A188A3D
:10165000DF91CF91089521EA32E0FC0131832083AC
:101660000C941B0BCF93DF93EC018C859D850E941E
:101670008508CE010E941B0B80E290E00E947D1A3B
:10168000998B888BDF91CF9108958FE593E00C942F
:101690008C0A8FE593E00C942B0BCF93DF931F9272
:1016A000CDB7DEB76983DC01ED91FC910280F38157
:1016B000E02D41E050E0BE016F5F7F4F09950F9034
:1016C000DF91CF91089508956F927F928F929F92AC
:1016D000AF92BF92CF92DF92EF92FF920F931F9340
:1016E000CF93DF9300D01F92CDB7DEB79B013A01B5
:1016F000FC01E85AFF4F40814F3F21F147E6498303
:10170000319640814A83399788248394912CCE0165
:1017100003965C01C12CD12CE12CF12C830142E019
:1017200050E0BE016F5F7F4F808191810E9407076B
:101730008B81882329F090E091958195910904C0CF
:10174000C30102C08FEF9FEF0F900F900F90DF91BA
:10175000CF911F910F91FF90EF90DF90CF90BF90AE
:10176000AF909F908F907F906F9008952F923F92AF
:101770004F925F926F927F928F929F92AF92BF92A1
:10178000CF92DF92EF92FF920F931F93CF93DF934D
:10179000CDB7DEB728970FB6F894DEBF0FBECDBF2A
:1017A0003C018B01FC011382128288EE93E0A0E0E1
:1017B000B0E084839583A683B78389ED92E091831B
:1017C00080831301F0E52F0E311CF101318320835A
:1017D0007301F2E5EF0EF11C65E273E0C701488783
:1017E0000E94AE19230188E5480E511C4885F2017C
:1017F0004083B801C7010E94E41982E7898387E723
:101800008A8381E68B8386E48E83F2018081FE01E8
:10181000E80FF11D81818F8381E090E0F3019787CC
:101820008687EA5AFF4F00811181F70120813181BB
:1018300092E0892E912CCE0104965C01C12CD12C12
:10184000E12CF12C42E050E0BE016A5F7F4FF101D4
:10185000808191810E9407078C81882321F08FEF7E
:10186000F201808307C0F301E75AFF4F8D81808327
:10187000F301148628960FB6F894DEBF0FBECDBFD5
:10188000DF91CF911F910F91FF90EF90DF90CF905C
:10189000BF90AF909F908F907F906F905F904F9090
:1018A0003F902F900895EF92FF920F931F93CF9345
:1018B000DF9300D01F92CDB7DEB77C01FC01848599
:1018C000811127C0158687E489838FE38B83E75ACC
:1018D000FF4F80818A8300E410E09701205F3F4F33
:1018E00043E050E0BE016F5F7F4F39978081918167
:1018F0000E94080A9C01215031092E3F3F4F18F0E9
:10190000F701148606C0F70195859F5F9587815082
:1019100084870F900F900F90DF91CF911F910F91BF
:10192000FF90EF900895CF93DF93EC010E94530C4A
:101930008C85882359F081508C878D8591E0980F94
:101940009D87C80FD11D888990E002C08FEF9FEF5F
:10195000DF91CF910895CF93DF93EC010E94530C58
:101960008C85882331F08D85C80FD11D888990E042
:1019700002C08FEF9FEFDF91CF910895CF93DF9358
:10198000EC010E94530C8C8590E0DF91CF9108957B
:10199000EF92FF920F931F93CF93DF9300D01F928C
:1019A000CDB7DEB77C0128E5E20EF11CF7012081FE
:1019B0002F3FB9F026E62983319620812A83399773
:1019C00001E010E09E012D5F3F4F42E050E0BE017C
:1019D0006F5F7F4F808191810E94080A8FEFF7012E
:1019E00080830F900F900F90DF91CF911F910F91F7
:1019F000FF90EF900895CF93DF93EC0189ED92E093
:101A000099838883CE010E94C80CCE018E5A9F4FC5
:101A1000DF91CF910C94401981E00895CF93DF932B
:101A2000EC01BA01422F24E533E00E94B60BCE014F
:101A3000DF91CF91089584E593E0909377038093AD
:101A40007603089508950F931F93CF93DF9300D0EB
:101A50001F92CDB7DEB729E42983FC0126852A83AE
:101A60006B8300E010E020E030E043E050E0BE0196
:101A70006F5F7F4F848595850E94080A81E090E022
:101A80000F900F900F90DF91CF911F910F910895BC
:101A9000EF92FF920F931F93CF93DF9300D01F928B
:101AA000CDB7DEB77C01FC018289811117C0138A92
:101AB0008FE4898386858A8380E48B8397012C5EFB
:101AC0003F4F00E410E043E050E0BE016F5F7F4F06
:101AD000848595850E94080AF701828B0F900F90EC
:101AE0000F90DF91CF911F910F91FF90EF9008958C
:101AF000CF93DF93EC010E94480D8A8990E0DF913B
:101B0000CF910895CF93DF93EC010E94480D8A890D
:101B1000882359F081508A8B8B8991E0980F9B8B99
:101B2000C80FD11D8C8990E002C08FEF9FEFDF912D
:101B3000CF910895CF93DF93EC010E94480D8A89DD
:101B4000882331F08B89C80FD11D8C8990E002C0A9
:101B50008FEF9FEFDF91CF9108950F931F93CF9356
:101B6000DF93EC018B0165EE72E08F8598890E940E
:101B70005B1AB8018F859889DF91CF911F910F91E2
:101B80000C94541A6F927F928F929F92AF92BF9251
:101B9000CF92DF92EF92FF920F931F93CF93DF9339
:101BA00000D01F92CDB7DEB73C0182E58B83D30115
:101BB0001F96ED91FC915097048115812081318110
:101BC00082E0882E912CFE0131965F01C12CD12C30
:101BD000E12CF12C41E050E0BE016D5F7F4F1C967F
:101BE0008D919C911D970E9407078A81D3011E96B3
:101BF0008C931E971F960D911C91509701151105FE
:101C000031F0C8010E944019C8010E947F1AF301F7
:101C1000108A17868981811102C081E0818B0F9023
:101C20000F900F90DF91CF911F910F91FF90EF9048
:101C3000DF90CF90BF90AF909F908F907F906F90EC
:101C400008950F931F93CF93DF9300D01F92CDB7CA
:101C5000DEB722E72983FC0126852A8301E010E014
:101C60009E012D5F3F4F42E050E0BE016F5F7F4F0E
:101C7000848595850E94080A81E09B81913009F056
:101C800080E00F900F900F90DF91CF911F910F91F7
:101C900008950F931F93CF93DF9300D000D0CDB75B
:101CA000DEB727E52B83FC0126852C8302E010E0BC
:101CB0009E012F5F3F4F42E050E0BE016D5F7F4FBE
:101CC000848595850E94080A898190E0982F88274D
:101CD0002A81820F911D0F900F900F900F90DF912E
:101CE000CF911F910F910895CF93DF93EC010E9444
:101CF000C20DCE010E94210E882339F064E670E007
:101D000080E090E00E94E113F4CFCE01DF91CF910B
:101D10000C94490EEF92FF920F931F93CF93DF9392
:101D200000D0CDB7DEB77C01FC018189882389F022
:101D300087E7898386858A8300E010E020E030E031
:101D400042E050E0BE016F5F7F4F848595850E9421
:101D5000080AF701118A0F900F90DF91CF911F9120
:101D60000F91FF90EF90089527EF32E0FC0131834F
:101D700020830C948A0EEF92FF920F931F93CF93C0
:101D8000DF9300D0CDB7DEB77C0169837A830E94F0
:101D90008A0E86E090E00E947B1A8C0169817A812C
:101DA0000E94DB19F701108B07870F900F90DF91CE
:101DB000CF911F910F91FF90EF900895CF93CFB7E0
:101DC000F89480917B03811127C0EEEBF0E08491C1
:101DD000EAEAF0E09491E82FF0E0EE0FFF1FEE52F8
:101DE000FF4FA591B4918C91892321F461E08AE0A1
:101DF0000E94B81461E08AE00E947F148CB5806173
:101E00008CBD8CB580648CBD61E08DE00E947F1438
:101E100061E08BE00E947F1480917B038F5F809351
:101E20007B03CFBFCF910895CF93DF931F92CDB7A0
:101E3000DEB76983DC01ED91FC910280F381E02D36
:101E400041E050E0BE016F5F7F4F09950F90DF9139
:101E5000CF9108950895FC011382128248EE53E059
:101E600060E070E0448355836683778387E093E086
:101E70009183808380E5848781E085878AE090E094
:101E80009787868789E090E0918B808B82E090E055
:101E9000938B828B158A148A178A168A118E108E5C
:101EA000138E128E0895EF92FF921F93CF93DF93BC
:101EB0001F92CDB7DEB77C01162F60E0FC0186854E
:101EC00049830E94B814F7013485258580917A03EF
:101ED0004981882399F09FB7F89480917A038130E3
:101EE00059F48DB3809378035DB380917903809525
:101EF00085238DBB9FBF02C0909378033CBD2DBD51
:101F00001EBD00000DB407FEFDCF8EB54EBD000016
:101F10000DB407FEFDCF1EB580917A03882361F0D2
:101F20008FB7F89420917A0390917803213019F4B7
:101F30009DBB8FBF01C09FBF61E0F70186850E94F6
:101F4000B814812F0F90DF91CF911F91FF90EF90E8
:101F500008956F7740E00C94530F0F931F93CF9326
:101F6000DF938C016AE10E94A90FC82FD0E0F8012D
:101F700064897589882777FD8095982F0E94881B32
:101F800024E832EF4EE45EE40E94E91A87FF03C0C2
:101F900084EA90E002C08DE990E09E01281B390B95
:101FA000C901DF91CF911F910F910895CF93DF93D6
:101FB000EC0163E10E94A90F90E02E893F89821B0A
:101FC000930BDF91CF910895CF93DF93EC01E881DC
:101FD000F9810480F581E02D0995892B59F08E89CE
:101FE0009F8901969F8B8E8B60E0CE010E94A90F86
:101FF00090E002C08FEF9FEFDF91CF9108958F9215
:102000009F92BF92CF92DF92EF92FF920F931F9316
:10201000CF93DF931F92CDB7DEB77C01D62E4A0156
:1020200062E279830E94A90FB82E282F30E0F901CF
:10203000E80DF91D7981EF3FF10531F028F0882492
:102040008A94912C821A930A0D2D172F6801C80CBF
:10205000D91C0C151D0541F0D8014D918D0160E88A
:10206000C7010E94530FF5CF482D4B0D62EAC701FF
:102070000E94530FC4010F90DF91CF911F910F91D8
:10208000FF90EF90DF90CF90BF909F908F9008953A
:10209000EF92FF921F93CF93DF931F92CDB7DEB7DE
:1020A0007C01DC01ED91FC910480F581E02D099526
:1020B000892B99F06DE0C7010E94A90F482F60E0BD
:1020C000C70149830E94A90F182F49816DE8C701F4
:1020D0000E94530F812F90E002C08FEF9FEF0F906F
:1020E000DF91CF911F91FF90EF90089541E861E853
:1020F0000C94530F40E861E80C94530F452B61F4A6
:102100006F30710514F06EE070E077FF02C060E0A0
:1021100070E0462F40670EC06230710534F06231C6
:1021200071052CF061E170E002C062E070E04EEFFA
:10213000460F406869E80C94530F9F92AF92BF928C
:10214000CF92DF92EF92FF920F931F93CF93DF9383
:10215000EC01DB01CA015D8B4C8B6A017B01FF0C3A
:10216000CC08DC2C76019A01AD016C2D7C2D8C2DD8
:102170009C2D03E10E942A1DA12C08E4B02EE8EE5C
:10218000CE2EDD24D394E12CF12C00E010E00E944F
:10219000CD1CF22E932E5A01162FC72ED82EE92EC3
:1021A00000E10E94451D422F66E8CE010E94530FB8
:1021B0002F2D392DA501612F7C2D8D2D9E2D08E011
:1021C0000E94451D422F67E8CE010E94530F4F2DFC
:1021D00068E8CE01DF91CF911F910F91FF90EF90B2
:1021E000DF90CF90BF90AF909F900C94530FCF9201
:1021F000DF92EF92FF92CF93DF93EC016A017B01B4
:1022000061E08E850E947F1461E088890E947F14BE
:1022100060E088890E94B8146AE070E080E090E095
:102220000E94E11361E088890E94B8146AE070E0BE
:1022300080E090E00E94E11361E08E850E94B81476
:102240000E94DE0E62E4CE010E94A90F823171F578
:10225000CE010E947A10B701A601CE010E949D1006
:1022600040E06EE8CE010E94530F40E06FE8CE01DF
:102270000E94530F6CE0CE010E94A90F482F4360CB
:102280006CE8CE010E94530F44E066EACE010E9442
:10229000530F41E050E061E170E0CE010E947E10FA
:1022A000CE010E94761081E090E002C080E090E0D4
:1022B000DF91CF91FF90EF90DF90CF9008950F9333
:1022C0001F93CF93DF93EC018B016630710534F0DF
:1022D0006D30710584F46630710579F445EC61EB7D
:1022E000CE010E94530F4CE067EBCE010E94530FCA
:1022F00006E010E00CC00CE010E043EC61EBCE0116
:102300000E94530F4AE067EBCE010E94530F6EE12B
:10231000CE010E94A90FF4E0000F111FFA95E1F71A
:10232000482F4F70402B6EE9CE01DF91CF911F9166
:102330000F910C94530FCF92DF92EF92FF920F9375
:102340001F93CF93DF93EC01CB01BA010E94881B4E
:102350006B017C0120E030EC43EF55E40E94E91A68
:1023600018160CF056C020E030E842E256E4C701EF
:10237000B6010E94E91A18160CF04EC020E030ECAD
:1023800043E756E4C701B6010E94E91A18160CF09B
:1023900046C020E030E842EA56E4C701B6010E9498
:1023A000E91A18160CF03EC020E034E244EF56E47F
:1023B000C701B6010E94E91A1816BCF520E034EEF8
:1023C00042E257E4C701B6010E94E91A181684F5E3
:1023D00020E034E244E757E4C701B6010E94E91A5D
:1023E00018164CF520E034E244EF57E4C701B6017B
:1023F0000E94E91A181614F520E034E244E758E484
:10240000C701B6010E94E91A1816DCF008E010E0D6
:102410001AC000E010E017C001E010E014C002E0B4
:1024200010E011C003E010E00EC004E010E00BC0AB
:1024300005E010E008C006E010E005C007E010E08D
:1024400002C009E010E06DE1CE010E94A90FA4E0F6
:10245000000F111FAA95E1F7482F4F70402B6DE92F
:10246000CE01DF91CF911F910F91FF90EF90DF9000
:10247000CF900C94530F0F931F93CF93DF938C0146
:10248000653071053CF0EB01693071052CF0C8E056
:10249000D0E002C0C5E0D0E06DE1C8010E94A90F04
:1024A0002497CC0FDD1F482F417F4C2B6DE9C801CD
:1024B000DF91CF911F910F910C94530FCF92DF9228
:1024C000EF92FF92CF93DF93EC016A017B01452FDE
:1024D000562F672F772767FD7A9560EACE010E9415
:1024E000530F4C2D61EACE01DF91CF91FF90EF9019
:1024F000DF90CF900C94530F462F69EB0C94530F41
:10250000CF93DF93EC01198E188E6DE10E94A90F15
:10251000482F4E7F6DE9CE01DF91CF910C94530F80
:10252000CF93DF93EC0181E090E0998F888F6DE18C
:10253000CE010E94A90F482F41606DE9CE01DF91C5
:10254000CF910C94530FFF920F931F93CF93DF9370
:10255000EC018B0162E10E94A90FF82ECE0110164A
:10256000110644F40E949012402F62EACE010E94AC
:10257000530F02C00E9480124F2D62E9CE010E94CB
:10258000530FF6FE1DC0F5FC1BC01F8A1E8A888DE6
:10259000998D892B11F062E201C063E1CE010E94A6
:1025A000A90F082F10E060E1CE010E94A90F482F6B
:1025B0006DE8CE010E94530FCE010E94761012C02A
:1025C00061E0CE010E94A90F863851F040E06DE82D
:1025D000CE010E94530F46E861E8CE010E94530FDE
:1025E00000E010E0C801DF91CF911F910F91FF90A3
:1025F00008950F931F93CF93DF93EC018B01161671
:10260000170644F40E949012402F62EACE010E9405
:10261000530F02C00E94801245E861E8CE01DF91AD
:10262000CF911F910F910C94530F8CE793E00C9472
:102630002B0F08951F920F920FB60F9211242F9314
:102640003F934F935F936F937F938F939F93AF933A
:10265000BF93EF93FF93E0910A01F0910B0109956D
:10266000FF91EF91BF91AF919F918F917F916F916A
:102670005F914F913F912F910F900FBE0F901F9040
:1026800018951F920F920FB60F9211242F933F931C
:102690004F935F936F937F938F939F93AF93BF936A
:1026A000EF93FF93E0910C01F0910D010995FF91DB
:1026B000EF91BF91AF919F918F917F916F915F91BA
:1026C0004F913F912F910F900FBE0F901F90189533
:1026D0001F920F920FB60F9211242F933F938F9357
:1026E0009F93AF93BF938091990390919A03A09188
:1026F0009B03B0919C033091980323E0230F2D3767
:1027000020F40196A11DB11D05C026E8230F0296F5
:10271000A11DB11D209398038093990390939A0370
:10272000A0939B03B0939C0380919D0390919E0383
:10273000A0919F03B091A0030196A11DB11D8093AC
:102740009D0390939E03A0939F03B093A003BF911A
:10275000AF919F918F913F912F910F900FBE0F904E
:102760001F9018952FB7F8946091990370919A0370
:1027700080919B0390919C032FBF08953FB7F894DD
:1027800080919D0390919E03A0919F03B091A0031F
:1027900026B5A89B05C02F3F19F00196A11DB11DBC
:1027A0003FBF6627782F892F9A2F620F711D811DD9
:1027B000911D42E0660F771F881F991F4A95D1F738
:1027C00008958F929F92AF92BF92CF92DF92EF9235
:1027D000FF926B017C010E94BE134B015C01C1148E
:1027E000D104E104F104F1F00E94831A0E94BE13A7
:1027F000681979098A099B09683E7340810591052A
:1028000070F321E0C21AD108E108F10888EE880EC1
:1028100083E0981EA11CB11CC114D104E104F10491
:1028200029F7DDCFFF90EF90DF90CF90BF90AF9072
:102830009F908F900895789484B5826084BD84B50C
:10284000816084BD85B5826085BD85B5816085BDAB
:10285000EEE6F0E0808181608083E1E8F0E01082C4
:10286000808182608083808181608083E0E8F0E005
:10287000808181608083E1EBF0E0808184608083EF
:10288000E0EBF0E0808181608083EAE7F0E0808126
:102890008460808380818260808380818160808386
:1028A0008081806880831092C1000895833081F018
:1028B00028F4813099F08230A1F008958730A9F092
:1028C0008830B9F08430D1F4809180008F7D03C0CE
:1028D000809180008F7780938000089584B58F77F2
:1028E00002C084B58F7D84BD08958091B0008F773C
:1028F00003C08091B0008F7D8093B0000895CF9386
:10290000DF9390E0FC01E056FF4F2491FC01EC5472
:10291000FF4F8491882349F190E0880F991FFC01B3
:10292000EE52FF4FA591B49188539F4FFC01C59182
:10293000D4919FB7611108C0F8948C91209582239F
:102940008C93888182230AC0623051F4F8948C9170
:10295000322F309583238C938881822B888304C007
:10296000F8948C91822B8C939FBFDF91CF91089527
:102970000F931F93CF93DF931F92CDB7DEB7282F0E
:1029800030E0F901E457FF4F8491F901E056FF4F21
:102990001491F901EC54FF4F04910023C9F08823EE
:1029A00021F069830E9456146981E02FF0E0EE0F58
:1029B000FF1FE853FF4FA591B4919FB7F8948C91F6
:1029C000611103C01095812301C0812B8C939FBF9F
:1029D0000F90DF91CF911F910F910895FC01818D90
:1029E000228D90E0805C9F4F821B91098F73992705
:1029F0000895FC01918D828D981731F0828DE80F3A
:102A0000F11D858D90E008958FEF9FEF0895FC01F3
:102A1000918D828D981761F0828DDF01A80FB11D15
:102A20005D968C91928D9F5F9F73928F90E0089539
:102A30008FEF9FEF08958BE896E1892B49F080E0B6
:102A400090E0892B29F00E948B1681110C940000D4
:102A50000895FC01848DDF01A80FB11DA35ABF4F5B
:102A60002C91848D90E001968F739927848FA6898D
:102A7000B7892C93A089B1898C9180648C93938DB4
:102A8000848D981306C00288F389E02D80818F7DA4
:102A900080830895CF93DF93EC01888D8823C9F05C
:102AA000EA89FB89808185FD05C0A889B9898C9157
:102AB00086FD0FC00FB607FCF5CF808185FFF2CFF2
:102AC000A889B9898C9185FFEDCFCE010E94291587
:102AD000E7CFDF91CF910895CF92DF92FF920F93CE
:102AE0001F93CF93DF931F92CDB7DEB76C0181E0C8
:102AF000D60158968C9358975B969C915B975C9601
:102B00008C915C97981307C05096ED91FC9151976A
:102B1000808185FD2EC0F601038D10E00F5F1F4FF1
:102B20000F731127F02EF601848DF81211C00FB625
:102B300007FCF9CFD6015096ED91FC915197808119
:102B400085FFF1CFC60169830E9429156981EBCF0A
:102B5000838DE80FF11DE35AFF4F6083D6015B962A
:102B60000C935B975296ED91FC9153978081806214
:102B70000CC0D6015696ED91FC9157976083509604
:102B8000ED91FC91519780818064808381E090E099
:102B90000F90DF91CF911F910F91FF90DF90CF9019
:102BA0000895BF92CF92DF92EF92FF92CF93DF937F
:102BB000EC016A017B01B22EE889F98982E0808309
:102BC000411581EE580761057105A1F060E079E0DB
:102BD0008DE390E0A70196010E94A31C21503109CA
:102BE000410951095695479537952795211580E15B
:102BF000380798F0E889F989108260E874E88EE176
:102C000090E0A70196010E94A31C215031094109BF
:102C100051095695479537952795EC85FD85308365
:102C2000EE85FF852083188EEC89FD89B082EA89C4
:102C3000FB89808180618083EA89FB89808188604B
:102C40008083EA89FB89808180688083EA89FB89A7
:102C500080818F7D8083DF91CF91FF90EF90DF9017
:102C6000CF90BF9008951F920F920FB60F9211242C
:102C70002F938F939F93EF93FF93E091B103F09184
:102C8000B2038081E091B703F091B80382FD12C0D6
:102C900090818091BA038F5F8F732091BB0382175D
:102CA00051F0E091BA03F0E0EF55FC4F958F80931F
:102CB000BA0301C08081FF91EF919F918F912F9175
:102CC0000F900FBE0F901F9018951F920F920FB686
:102CD0000F9211242F933F934F935F936F937F93A2
:102CE0008F939F93AF93BF93EF93FF9381EA93E00A
:102CF0000E942915FF91EF91BF91AF919F918F9104
:102D00007F916F915F914F913F912F910F900FBEE7
:102D10000F901F90189581EA93E00E94EE1421E035
:102D2000892B09F420E0822F08951092A4031092B9
:102D3000A30388EE93E0A0E0B0E08093A503909316
:102D4000A603A093A703B093A80387E193E0909311
:102D5000A2038093A10385EC90E09093AE0380934F
:102D6000AD0384EC90E09093B0038093AF0380ECCC
:102D700090E09093B2038093B10381EC90E0909344
:102D8000B4038093B30382EC90E09093B6038093F6
:102D9000B50386EC90E09093B8038093B70310924C
:102DA000BA031092BB031092BC031092BD030895A6
:102DB000CF92DF92EF92FF920F931F93CF93DF9307
:102DC0007C016A01EB0100E010E00C151D0571F0BB
:102DD0006991D701ED91FC910190F081E02DC7013F
:102DE0000995892B19F00F5F1F4FEFCFC801DF91B5
:102DF000CF911F910F91FF90EF90DF90CF900895AA
:102E00006115710581F0DB010D900020E9F7AD013E
:102E100041505109461B570BDC01ED91FC9102809A
:102E2000F381E02D099480E090E00895EF92FF9205
:102E30000F931F93CF93DF938C017B01C0E0D0E011
:102E4000F701EC0FFD1F6491662359F0F801A08192
:102E5000B181ED91FC91C8010995892B11F0219662
:102E6000EFCFCE01DF91CF911F910F91FF90EF90A7
:102E70000895DC01ED91FC91DB0114964D915C917C
:102E800015976D917C910280F381E02D09940C944B
:102E90000017DC01ED91FC910190F081E02D099487
:102EA00063E273E00C9400170F931F93CF93DF93AB
:102EB000EC010E9439178C01CE010E945017800F3F
:102EC000911FDF91CF911F910F9108950F931F9341
:102ED000CF93DF93EC010E9400178C01CE010E947A
:102EE0005017800F911FDF91CF911F910F9108957F
:102EF0008F929F92AF92BF92DF92EF92FF920F93C9
:102F00001F93CF93DF93CDB7DEB7A1970FB6F89499
:102F1000DEBF0FBECDBF7C01F42FD52ECB0119A291
:102F2000223008F42AE08E010F5D1F4F822E912C73
:102F3000A12CB12C6F2F7D2DA50194010E94A31C03
:102F4000F22FD32ECA01015011096A3014F4E0E3C4
:102F500001C0E7E3E60FD801EC93232B242B252BAC
:102F600049F7B801C7010E940017A1960FB6F8945F
:102F7000DEBF0FBECDBFDF91CF911F910F91FF90AC
:102F8000EF90DF90BF90AF909F908F900895CF9279
:102F9000DF92EF92FF920F931F93CF93DF93EC0199
:102FA0006A017B012115310579F4E881F9810190ED
:102FB000F081E02D642FDF91CF911F910F91FF9051
:102FC000EF90DF90CF9009942A303105E9F477FF34
:102FD0001AC06DE20E9449178C0144275527BA0197
:102FE0004C195D096E097F092AE0CE010E9478170D
:102FF000800F911FDF91CF911F910F91FF90EF9064
:10300000DF90CF9008952AE0B701A601CE01DF91AD
:10301000CF911F910F91FF90EF90DF90CF900C9484
:1030200078179A01AB01662757FD6095762F0C94AF
:10303000C7170F931F93CF93DF93EC019A01AB0156
:10304000662757FD6095762F0E94C7178C01CE0129
:103050000E945017800F911FDF91CF911F910F9108
:1030600008950F931F93CF93DF93EC010E94C7172E
:103070008C01CE010E945017800F911FDF91CF91DC
:103080001F910F9108954F925F926F927F928F924E
:103090009F92AF92BF92CF92DF92EF92FF920F93E7
:1030A0001F93CF93DF93EC016A017B01B22E9A014B
:1030B000AB01C701B6010E949F1C882319F066E28C
:1030C00073E027C026013701E89477F82FEF3FEF30
:1030D0004FE75FE7C301B2010E949F1C81110DC041
:1030E0002FEF3FEF4FE75FE7C301B2010E94E91AFC
:1030F00018161CF46AE273E00CC02FEF3FEF4FE7A5
:103100005FE4C701B6010E94381C1816ACF46EE2E9
:1031100073E0CE01DF91CF911F910F91FF90EF905F
:10312000DF90CF90BF90AF909F908F907F906F90E7
:103130005F904F900C9400172FEF3FEF4FE75FEC3D
:10314000C701B6010E94E91A87FDE1CF20E030E017
:10315000A901C701B6010E94E91A87FF0AC06DE202
:10316000CE010E9449178C01F7FAF094F7F8F09419
:1031700002C000E010E0A12C60E070E080E09FE37E
:10318000AB1441F020E030E040E251E40E94ED1A3F
:10319000A394F6CF9B01AC01C701B6010E94851A2A
:1031A0006B017C010E945A1B2B013C010E94861B73
:1031B0009B01AC01C701B6010E94841A6B017C011E
:1031C0002AE0B301A201CE010E947817080F191F4F
:1031D000BB2039F062E373E0CE010E940017080FB4
:1031E000191F7B2C772041F120E030E040E251E4D0
:1031F000C701B6010E943C1C6B017C010E94551B5B
:103200004B01AA2497FCA094BA2C2AE030E0B50127
:10321000A401CE010E94C717080F191FC501B401F0
:103220000E94881B9B01AC01C701B6010E94841A51
:103230006B017C017A94D6CFC801DF91CF911F91A9
:103240000F91FF90EF90DF90CF90BF90AF909F9045
:103250008F907F906F905F904F9008950F931F9382
:10326000CF93DF93EC010E9443188C01CE010E94A2
:103270005017800F911FDF91CF911F910F910895EB
:10328000FC01808191810C94F91DCF93DF93EC01B7
:1032900088819981009711F00E94F91D1982188286
:1032A0001D821C821B821A82DF91CF9108950F9399
:1032B0001F93CF93DF93EC018B016F5F7F4F88816A
:1032C00099810E94881E009731F0998388831B831F
:1032D0000A8381E001C080E0DF91CF911F910F91BF
:1032E0000895CF93DF93EC0188819981892B29F090
:1032F0008A819B818617970760F4CE010E94571937
:10330000882341F08C819D81892B19F4E881F98112
:10331000108281E0DF91CF910895EF92FF920F9399
:103320001F93CF93DF93EC017B018A01BA010E94C6
:103330007119811104C0CE010E94451907C01D8377
:103340000C83B701888199810E94AC1FCE01DF9167
:10335000CF911F910F91FF90EF900895FC01118282
:10336000108213821282158214826115710559F040
:10337000FB0101900020E9F7AF0141505109461BC4
:10338000570B0C948D190895CF93DF93EC01FB013B
:103390008617970761F0608171816115710529F0C9
:1033A000448155810E948D1902C00E944519CE01A9
:1033B000DF91CF910895FC01118210821382128255
:1033C000158214820C94C419CF93DF93EC0161151C
:1033D000710561F0FB0101900020E9F7AF01415058
:1033E0005109461B570B0E948D1902C00E944519B6
:1033F000CE01DF91CF9108950F931F93CF93DF9369
:10340000CDB7DEB762970FB6F894DEBF0FBECDBF63
:103410008C01CB01F8011182108213821282158275
:10342000148250E0BE016F5F7F4F0E94B31FBE0148
:103430006F5F7F4FC8010E94E41962960FB6F8943F
:10344000DEBF0FBECDBFDF91CF911F910F910895C9
:10345000EF92FF920F931F93CF93DF93EC017B01C9
:103460000C811D816115710511F480E016C04115B4
:10347000510591F0040F151FB8010E94711988239E
:10348000A1F3288139818C819D81B701820F931F1F
:103490000E94AC1F1D830C8381E0DF91CF911F91AF
:1034A0000F91FF90EF900895FB0144815581608159
:1034B00071810C94281A6115710559F0FB01019076
:1034C0000020E9F7AF0141505109461B570B0C94FE
:1034D000281A80E0089508950E941B140E946B1A18
:1034E0000E94EA03CBE1D5E10E9441062097E1F377
:1034F0000E941B15F9CF0C94611D0C94611D0C9456
:10350000F91D0C94F91D08955058BB27AA270ED019
:1035100075C166D130F06BD120F031F49F3F11F4CA
:103520001EF45BC10EF4E095E7FB51C1E92F77D1A2
:1035300080F3BA17620773078407950718F071F4D0
:103540009EF58FC10EF4E0950B2EBA2FA02D0B0126
:10355000B90190010C01CA01A0011124FF27591BD8
:1035600099F0593F50F4503E68F11A16F040A22FDE
:10357000232F342F4427585FF3CF4695379527954F
:10358000A795F0405395C9F77EF41F16BA0B620B4E
:10359000730B840BBAF09150A1F0FF0FBB1F661F95
:1035A000771F881FC2F70EC0BA0F621F731F841FD8
:1035B00048F4879577956795B795F7959E3F08F0FE
:1035C000B3CF9395880F08F09927EE0F97958795BD
:1035D0000895D9D008F481E008950CD00FC107D127
:1035E00040F0FED030F021F45F3F19F0F0C05111EF
:1035F00039C1F3C014D198F39923C9F35523B1F31A
:10360000951B550BBB27AA2762177307840738F051
:103610009F5F5F4F220F331F441FAA1FA9F333D0B0
:103620000E2E3AF0E0E830D091505040E695001C64
:10363000CAF729D0FE2F27D0660F771F881FBB1F20
:10364000261737074807AB07B0E809F0BB0B802DFA
:10365000BF01FF2793585F4F2AF09E3F510568F046
:10366000B6C000C15F3FECF3983EDCF386957795DA
:103670006795B795F7959F5FC9F7880F911D969548
:10368000879597F90895E1E0660F771F881FBB1FA4
:10369000621773078407BA0720F0621B730B840B51
:1036A000BA0BEE1F88F7E095089504D06894B11125
:1036B000D9C00895BCD088F09F5790F0B92F9927B2
:1036C000B751A0F0D1F0660F771F881F991F1AF02D
:1036D000BA95C9F712C0B13081F0C3D0B1E00895F6
:1036E000C0C0672F782F8827B85F39F0B93FCCF377
:1036F000869577956795B395D9F73EF49095809523
:10370000709561957F4F8F4F9F4F0895E89409C042
:1037100097FB3EF490958095709561957F4F8F4F04
:103720009F4F9923A9F0F92F96E9BB279395F6951A
:10373000879577956795B795F111F8CFFAF4BB0F98
:1037400011F460FF1BC06F5F7F4F8F4F9F4F16C0FC
:10375000882311F096E911C0772321F09EE8872F86
:10376000762F05C0662371F096E8862F70E060E042
:103770002AF09A95660F771F881FDAF7880F9695BB
:10378000879597F90895990F0008550FAA0BE0E85F
:10379000FEEF16161706E807F907C0F01216130613
:1037A000E407F50798F0621B730B840B950B39F453
:1037B0000A2661F0232B242B252B21F408950A26B9
:1037C00009F4A140A6958FEF811D811D089597F9F9
:1037D0009F6780E870E060E008959FEF80EC0895B7
:1037E00000240A94161617061806090608950024E0
:1037F0000A9412161306140605060895092E03945A
:10380000000C11F4882352F0BB0F40F4BF2B11F4CD
:1038100060FF04C06F5F7F4F8F4F9F4F089557FD2C
:103820009058440F551F59F05F3F71F04795880F2E
:1038300097FB991F61F09F3F79F0879508951216C5
:1038400013061406551FF2CF4695F1DF08C0161671
:1038500017061806991FF1CF869571056105089422
:103860000895E894BB2766277727CB0197F9089539
:103870008ADF08F48FEF08950BD0C0CFB1DF28F0B6
:10388000B6DF18F0952309F0A2CFA7CF1124EACF15
:10389000C6DFA0F3959FD1F3950F50E0551F629FAF
:1038A000F001729FBB27F00DB11D639FAA27F00D99
:1038B000B11DAA1F649F6627B00DA11D661F829FC0
:1038C0002227B00DA11D621F739FB00DA11D621FA5
:1038D000839FA00D611D221F749F3327A00D611DC2
:1038E000231F849F600D211D822F762F6A2F1124A4
:1038F0009F5750408AF0E1F088234AF0EE0FFF1FF7
:10390000BB1F661F771F881F91505040A9F79E3F2D
:10391000510570F05CCFA6CF5F3FECF3983EDCF32F
:10392000869577956795B795F795E7959F5FC1F76A
:10393000FE2B880F911D9695879597F9089523DFA3
:10394000880B990B0895A1E21A2EAA1BBB1BFD013F
:103950000DC0AA1FBB1FEE1FFF1FA217B307E4076E
:10396000F50720F0A21BB30BE40BF50B661F771FC6
:10397000881F991F1A9469F76095709580959095A6
:103980009B01AC01BD01CF010895EE0FFF1F059013
:10399000F491E02D0994689401C0E8948F929F926D
:1039A000CF93DF930E94D91CDF91CF919F908F908E
:1039B000089588249924F401E401B0E49F93AA2790
:1039C0009A158B049C04ED05FE05CF05D007A107D1
:1039D00098F4AD2FDC2FCF2FFE2FE92D982C892EB8
:1039E000982F872F762F652F542F432F322F222782
:1039F000B85031F7BF9127C01B2EBF91BB27220FB4
:103A0000331F441F551F661F771F881F991F881C6F
:103A1000991CEE1FFF1FCC1FDD1FAA1FBB1F8A149E
:103A20009B04EC05FD05CE05DF05A007B10748F0B6
:103A30008A189B08EC09FD09CE09DF09A00BB10B20
:103A400021601A94E1F62EF49401AF01BE01CD017C
:103A5000000C08950F93083090F0982F872F762F41
:103A6000652F542F432F322F22270850F4CF220FD7
:103A7000331F441F551F661F771F881F991F0A9504
:103A8000B2F70F91089597FB10F8169400080F9362
:103A9000083098F00850232F342F452F562F672FCA
:103AA000782F892F902DF4CF05949795879577954A
:103AB000679557954795379527950A95AAF70F91DA
:103AC0000895CF93DF938230910510F482E090E067
:103AD000E0914004F091410420E030E0A0E0B0E04B
:103AE000309739F14081518148175907B8F048178C
:103AF000590771F482819381109729F013969C9352
:103B00008E9312972CC0909341048093400427C059
:103B10002115310531F04217530718F0A901DB01D7
:103B200001C0EF019A01BD01DF010280F381E02DA8
:103B3000D7CF21153105F9F0281B390B2430310579
:103B400080F48A819B816115710521F0FB019383CB
:103B5000828304C09093410480934004FE01329616
:103B600044C0FE01E20FF31F81939193225031096B
:103B7000398328833AC020913E0430913F04232B9F
:103B800041F4209102013091030130933F042093CE
:103B90003E0420910001309101012115310541F4CD
:103BA0002DB73EB74091040150910501241B350B00
:103BB000E0913E04F0913F04E217F307A0F42E1BBE
:103BC0003F0B2817390778F0AC014E5F5F4F241781
:103BD000350748F04E0F5F1F50933F0440933E045B
:103BE0008193919302C0E0E0F0E0CF01DF91CF91AB
:103BF0000895CF93DF93009709F487C0FC013297B3
:103C000013821282C0914004D0914104209781F424
:103C100020813181280F391F80913E0490913F040B
:103C20008217930779F5F0933F04E0933E046DC04B
:103C3000DE0120E030E0AE17BF0750F412964D9140
:103C40005C9113979D014115510509F1DA01F3CFFC
:103C5000B383A28340815181840F951F8A179B07EC
:103C600071F48D919C911197840F951F0296918309
:103C7000808312968D919C91139793838283211553
:103C8000310529F4F0934104E09340043EC0D9018A
:103C90001396FC93EE9312974D915D91A40FB51F6F
:103CA000EA17FB0779F480819181840F951F0296B2
:103CB000D90111969C938E938281938113969C9344
:103CC0008E931297E0E0F0E08A819B81009719F0D3
:103CD000FE01EC01F9CFCE01029628813981820FD5
:103CE000931F20913E0430913F042817390769F44F
:103CF000309729F4109241041092400402C01382BC
:103D00001282D0933F04C0933E04DF91CF91089577
:103D1000A0E0B0E0EEE8FEE10C949D21EC01CB01C7
:103D2000209719F40E94611DB8C0FE01E60FF71F2D
:103D30009E0122503109E217F30708F4ACC0D90103
:103D40000D911C91119706171707B8F00530110552
:103D500008F49FC0A801445051094617570708F4BA
:103D600098C002501109061B170B019311936D9314
:103D70007C93CF010E94F91D8CC05B01A01AB10A8F
:103D80004E01800E911EA0914004B0914104612C1F
:103D9000712C60E070E0109709F449C0A815B905CE
:103DA000C9F5ED90FC901197670142E0C40ED11C5B
:103DB000CA14DB0478F147018A189B08640142E0C9
:103DC000C40ED11C1296BC9012971396AC91B5E01C
:103DD000CB16D10440F0B282A38391828082D901B4
:103DE0008D939C9309C00E5F1F4F0E0D1F1DF9018F
:103DF00011830083EB2DFA2F6115710531F0DB0182
:103E00001396FC93EE93129744C0F0934104E09311
:103E100040043FC06D917C9111976616770608F4B7
:103E20003B01BD0112960D90BC91A02DB4CF6091C5
:103E30003E0470913F0468157905E9F46816790627
:103E4000D0F440910001509101014115510541F418
:103E50004DB75EB76091040170910501461B570B89
:103E6000E417F507C0F4F0933F04E0933E04F90132
:103E7000918380830EC00E94611D7C01009759F0E0
:103E8000A801BE010E94A31FCE010E94F91DC70117
:103E900004C0CE0102C080E090E0CDB7DEB7EEE016
:103EA0000C94B921662777270C940020FC01882701
:103EB0009927E89421912032E9F3293010F02E302F
:103EC000C8F32B3241F02D3239F4689404C00E94BB
:103ED000DE1F820F911D219120532A30C0F31EF462
:103EE000909581959F4F08951F93FC0199278827EE
:103EF000BC01E89411911032E9F3193010F01E3032
:103F0000C8F31B3251F01D3249F4689406C00E9478
:103F1000C91F610F711D811D911D119110531A3020
:103F2000B0F33EF490958095709561957F4F8F4FDB
:103F30009F4F1F9108959111C6C1803219F0895089
:103F40008550D0F70895FB01DC0102C001900D926D
:103F500041505040D8F70895FB01DC0101900D92CB
:103F60000020E1F708954532510520F4423010F069
:103F70000C94BE1FFB011082CB010895BB274A3071
:103F800031F4992322F4BDE2909581959F4F0C94D2
:103F9000E71F592F482F372F262F660F771F881FAF
:103FA000991F660F771F881F991F620F731F841F49
:103FB000951F660F771F881F991F08957AE0979FB6
:103FC000902D879F802D910D11240895BB27FB0113
:103FD0005527AA27880F991FAA1FA41710F0A41B02
:103FE00083955051B9F7A05DAA3308F0A95DA1935C
:103FF000009779F7B111B1931192CB010C947E2106
:10400000A0E0B0E0E6E0F0E20C949F218B016115A6
:10401000710521F0DB018C9311969C93EC015E01FC
:10402000BFEFAB1ABB0A7501C8808C2D90E00E94CF
:104030009B1F892B11F0E501F2CFEDE2CE1208C0F3
:104040007E01F2E0EF0EF11CC980DD24D39409C09B
:104050002BE2C21205C07E0142E0E40EF11CC980D1
:10406000D12CE701219743E050E064EE70E0CE01EF
:104070000E946621892BC1F4239645E050E06FED44
:1040800070E0CE010E946621892B09F42596011566
:10409000110519F0D801CD93DC93D11006C160E071
:1040A00070E080E89FE70AC143E050E06CED70E00B
:1040B000CE010E946621892B59F40115110509F4DE
:1040C000F9C0B2E0EB0EF11CF801F182E082F2C01F
:1040D000F70160E070E0CB01C0E0D0E07F01A0ED2F
:1040E000AA2EAC0C29E02A1530F14D2D4260B42ED9
:1040F0002D2D2870D2FE04C0211125C0219623C089
:1041000021112197A5E0B0E09B01AC010E948E2116
:10411000660F771F881F991F6A0D711D811D911DE4
:104120006839A9E97A078A07A9E19A0760F0BD2DE5
:10413000B660BB2E08C02EEFA2120AC0D3FC50C03E
:104140004D2D4860B42E3196D701CC90DB2CC6CFD4
:104150002C2D2F7D253409F043C0A081AD3241F4D0
:10416000BD2DB061DB2E7F0122E0E20EF11C0CC000
:104170007F01AB3231F04FEFE41AF40A21E030E076
:1041800006C0A2E0EA0EF11CA18122E030E0A053BB
:10419000AA3018F0E21AF30A23C0F70120E030E059
:1041A0002038BCE03B075CF4A901440F551F440FC5
:1041B000551F240F351F220F331F2A0F311DAF014A
:1041C0004F5F5F4F7A01A081A053AA3010F4FA012B
:1041D000E7CFD4FE03C0319521953109C20FD31F1B
:1041E000D1FE09C00115110531F0E1E0EE1AF10828
:1041F000D801ED92FC920E94861B2D2D2370233056
:1042000019F04B015C0106C04B015C01B7FAB09498
:10421000B7F8B09420E030E0A901C501B4010E94D4
:10422000E91A882309F43EC0D7FF06C0D195C1958D
:10423000D1090BEF10E002C003E111E06801B8E121
:10424000CB1AD10890E2E92EF12CCE15DF0574F0DF
:10425000F8012591359145915491C501B4010E9411
:104260003C1C4B015C01CE19DF09EFCF0450110952
:10427000F594E7940C151D0541F78A2D880F8B2DB9
:10428000881F8F3F49F020E030E0A901C501B4014B
:104290000E94E91A811106C082E290E090934304E3
:1042A00080934204C501B40109C060E070E080E879
:1042B0009FEF04C060E070E080EC9FE7CDB7DEB711
:1042C000ECE00C94BB21992788270895FB01DC01C1
:1042D0004150504088F08D9181341CF08B350CF4A6
:1042E000805E659161341CF06B350CF4605E861B5A
:1042F000611171F3990B0895881BFCCFDC01FC015F
:10430000672F71917723E1F7329704C07C916D9309
:1043100070836291AE17BF07C8F308950E94D02141
:10432000A59F900DB49F900DA49F800D911D112409
:1043300008952F923F924F925F926F927F928F9249
:104340009F92AF92BF92CF92DF92EF92FF920F9324
:104350001F93CF93DF93CDB7DEB7CA1BDB0B0FB62E
:10436000F894DEBF0FBECDBF09942A8839884888EB
:104370005F846E847D848C849B84AA84B984C88481
:10438000DF80EE80FD800C811B81AA81B981CE0F78
:10439000D11D0FB6F894DEBF0FBECDBFED0108955D
:1043A000A29FB001B39FC001A39F700D811D112476
:1043B000911DB29F700D811D1124911D089511E072
:1043C000C4E2D1E004C0FE010E94C71C2296C8329C
:0843D000D107C9F7F894FFCFF3
:1043D800000044048000E09304001913191358588E
:1043E80058585858583130302F7573722F62696E8B
:1043F8002F6C6F72615F7564705F667764007374A9
:1044080061740055706461746520476174657761F3
:1044180079205374617475730075636900676574F6
:10442800006C6F726177616E2E726164696F2E72B3
:10443800785F6672657175656E6379006C6F72611D
:1044480077616E2E726164696F2E5346006C6F72CD
:104458006177616E2E726164696F2E636F64657235
:10446800617465006C6F726177616E2E7261646948
:104478006F2E707265616D626C65006C6F7261772A
:10448800616E2E726164696F2E4257002F766172D9
:104498002F6176722F66775F76657273696F6E002B
:1044A800536B657463682056657273696F6E3A0062
:1044B8005374617274204C6F526157414E20536996
:1044C8006E676C65204368616E6E656C2047617429
:1044D80065776179005258204672657175656E631B
:1044E800793A200053707265616420466163746F85
:1044F800723A20534600436F64696E6720526174B4
:10450800653A20342F0042616E6477696474683AB2
:104518002000507265616D626C654C656E677468E9
:104528003A2000696E6974204C6F52612066616997
:104538006C65640073696E676C655F706B745F6649
:1045480077645F7630303200476574205061636B62
:1045580065743A00204279746573005B005D002F32
:104568007661722F696F742F6461746100000000B6
:1045780000440A9D09E20AEC0A060B290A6C73201A
:1045880000207C2061776B20274E523D3D0027009C
:104598006C73006D6B646972002D7000726D00722F
:1045A8006D64697200000000004D0B640BBE0C9333
:1045B8000CAB0C630BFE002F62696E2F61736800F1
:1045C8002D630000000000230DD816780D820D9A87
:1045D8000D220D00000000140FFF0FD60FE40F4846
:1045E800102A0F000000006C15D816EE140715F9F4
:1045F800144A150D0A006E616E00696E66006F76CA
:0446080066002E001A
:00000001FF
