:100000000C9435010C948F080C9468080C945D01D5
:100010000C945D010C945D010C945D010C945D01E8
:100020000C945D010C945D010C945D010C945D01D8
:100030000C945D010C945D010C945D010C945D01C8
:100040000C941E080C945D010C94FF030C94D903CE
:100050000C945D010C945D010C945D010C945D01A8
:100060000C945D010C945D01811786178B17901716
:1000700095179A179F172413A417A917696E697407
:10008000204C6F5261206661696C65640050726536
:10009000616D626C654C656E6774683A2000426100
:1000A0006E6477696474683A2000436F64696E67B0
:1000B00020526174653A20342F00545820537072D6
:1000C00065616420466163746F723A205346005341
:1000D000707265616420466163746F723A205346A2
:1000E000005458204672657175656E63793A200038
:1000F0005258204672657175656E63793A200053D7
:1001000074617274204C6F526157414E2053696E76
:10011000676C65204368616E6E656C20476174652D
:1001200077617900536B65746368205665727369F3
:100130006F6E3A00454E442041205041434B455498
:100140002C204D6F64653A00204578697374730004
:10015000446576616464723A0020005D005B0020B3
:10016000427974657300476574205061636B6574F0
:100170003A005B7472616E736D69745D20454E4424
:100180000020005D005B00446F776E6C696E6B2031
:100190004D6573736167653A005B7472616E736D70
:1001A00069745D204461746120446F776E20454E10
:1001B000440020005D005B00446F776E6C696E6BDD
:1001C000204D6573736167653A0072756E2D6272BA
:1001D000696467650A000A000A000000000800025E
:1001E0000100000304070000000000000000000000
:1001F0000000250028002B0000000000240027003C
:100200002A00040404040404040402020202020298
:1002100003030303030301020408102040800102CA
:10022000040810200102040810204E414E494E4996
:100230005459494E46CDCCCC3D0AD7233C17B7D1B3
:100240003877CC2B329595E6241FB14F0A00002059
:10025000410000C84200401C4620BCBE4CCA1B0ED8
:100260005AAEC59D7400681A5A1A11241FBECFEFEA
:10027000D8E0DEBFCDBF12E0A0E0B1E0E6E8F9E4EF
:1002800002C005900D92A23BB107D9F725E0A2EB81
:10029000B2E001C01D92A73EB207E1F711E0C4E34E
:1002A000D1E004C02197FE010E94341BC333D10763
:1002B000C9F70E9402100C94B6240C940000CF924F
:1002C000DF92EF92FF920F931F93CF93DF936C0116
:1002D0007A018B01C0E0D0E0CE15DF0589F0D801AE
:1002E0006D918D01D601ED91FC910190F081E02D91
:1002F000C6010995892B11F47E0102C02196ECCF2D
:10030000C701DF91CF911F910F91FF90EF90DF9088
:10031000CF900895FC01918D828D981761F0828DA8
:10032000DF01A80FB11D5D968C91928D9F5F9F7329
:10033000928F90E008958FEF9FEF0895FC01918DCB
:10034000828D981731F0828DE80FF11D858D90E038
:1003500008958FEF9FEF0895FC01918D228D892FD5
:1003600090E0805C9F4F821B91098F7399270895BD
:1003700088E195E00E94AC0121E0892B09F420E09E
:10038000822F0895FC01848DDF01A80FB11DA35AAF
:10039000BF4F2C91848D90E001968F739927848FA5
:1003A000A689B7892C93A089B1898C9180648C939C
:1003B000938D848D981306C00288F389E02D808187
:1003C0008F7D80830895EF92FF920F931F93CF93B9
:1003D000DF93EC0181E0888F9B8D8C8D981305C095
:1003E000E889F989808185FD24C0F62E0B8D10E007
:1003F0000F5F1F4F0F731127E02E8C8DE8120CC07A
:100400000FB607FCFACFE889F989808185FFF5CF1F
:10041000CE010E94C201F1CF8B8DFE01E80FF11DCC
:10042000E35AFF4FF0820B8FEA89FB89808180625B
:1004300007C0EE89FF896083E889F989808180643B
:10044000808381E090E0DF91CF911F910F91FF9029
:10045000EF900895CF93DF93EC01888D8823C9F046
:10046000EA89FB89808185FD05C0A889B9898C91BD
:1004700086FD0FC00FB607FCF5CF808185FFF2CF58
:10048000A889B9898C9185FFEDCFCE010E94C20168
:10049000E7CFDF91CF91089580E090E0892B29F09C
:1004A0000E94B80181110C94000008953FB7F894A0
:1004B0008091F6049091F704A091F804B091F904AA
:1004C00026B5A89B05C02F3F19F00196A11DB11DAF
:1004D0003FBFBA2FA92F982F8827820F911DA11DEA
:1004E000B11DBC01CD0142E0660F771F881F991F27
:1004F0004A95D1F7089508950895CF93DF931F92F9
:10050000CDB7DEB76983DC01ED91FC910280F38108
:10051000E02D41E050E0BE016F5F7F4F09950F90E5
:10052000DF91CF91089508950895CF93DF931F929F
:10053000CDB7DEB76983DC01ED91FC910280F381D8
:10054000E02D41E050E0BE016F5F7F4F09950F90B5
:10055000DF91CF910895CF93DF93EC018D819E8140
:10056000DC01ED91FC910480F581E02D09951816D0
:10057000190654F48D819E81DC01ED91FC91068079
:10058000F781E02D0995EACFDF91CF910895FC0125
:10059000238134812627022E2295207F2025032EB9
:1005A000322F22952F700226269532272327220FDD
:1005B000220F220F20253483238308950E94741E66
:1005C0000F931F93CF93DF93EC018881998100975C
:1005D00029F02A813B812617370788F48B016F5F4A
:1005E0007F4F0E94AA1D009761F0998388831B8327
:1005F0000A832C813D81232B11F4FC01108281E0C0
:1006000001C080E0DF91CF911F910F910895EF928B
:10061000FF920F931F93CF93DF93EC017B018A012D
:10062000BA010E94E0022881398181110DC0211593
:10063000310519F0C9010E94121D198218821D820C
:100640001C821B821A8206C01D830C83B701C9015C
:100650000E94821ECE01DF91CF911F910F91FF90DA
:10066000EF900895FC01808191810C94121DFC0192
:100670001182108213821282158214826115710513
:1006800051F0FB0101900020E9F73197AF01461BC3
:10069000570B0C9407030895DC01ED91FC91019038
:1006A000F081E02D0994EF92FF920F931F93CF9367
:1006B000DF938C017B01C0E0D0E0F701EC0FFD1F60
:1006C0006491662361F0D801ED91FC910190F08175
:1006D000E02DC8010995892B11F02196EECFCE01AE
:1006E000DF91CF911F910F91FF90EF9008956115C9
:1006F000710579F0FB0101900020E9F73197AF0116
:10070000461B570BDC01ED91FC910280F381E02D3B
:10071000099480E090E008954F925F926F927F92EB
:10072000EF92FF920F931F93CF93DF93CDB7DEB776
:10073000A1970FB6F894DEBF0FBECDBF7C01FA01C2
:10074000CB0119A2223008F42AE08E010F5D1F4F61
:10075000422E512C612C712CBF01A30192010E94E9
:10076000121BF901CA01015011096A3014F4605DCD
:1007700001C0695CD8016C93232B242B252B61F7D6
:10078000B801C7010E947703A1960FB6F894DEBFA7
:100790000FBECDBFDF91CF911F910F91FF90EF90D2
:1007A0007F906F905F904F90089568E872E00C948E
:1007B00077031F920F920FB60F9211242F933F933E
:1007C0004F935F936F937F938F939F93AF93BF9359
:1007D000EF93FF9388E195E00E94C201FF91EF91B2
:1007E000BF91AF919F918F917F916F915F914F9149
:1007F0003F912F910F900FBE0F901F9018951F9251
:100800000F920FB60F9211242F938F939F93EF9314
:10081000FF93E0912805F09129058081E0912E0554
:10082000F0912F0582FD12C09081809131058F5F7C
:100830008F7320913205821751F0E0913105F0E07D
:10084000E85EFA4F958F8093310501C08081FF915A
:10085000EF919F918F912F910F900FBE0F901F904E
:10086000189590E0FC01E652FE4F3491FC01EA5EDF
:10087000FD4F2491FC01EE5FFD4FE491EE2309F45E
:100880003BC0332339F1333091F038F43130A9F0E3
:10089000323001F584B58F7D12C0373091F0383099
:1008A000A1F03430B9F4809180008F7D03C0809135
:1008B00080008F77809380000DC084B58F7784BDD2
:1008C00009C08091B0008F7703C08091B0008F7D08
:1008D0008093B000F0E0EE0FFF1FE251FE4FA591B4
:1008E000B4918FB7F894EC91611103C020952E2339
:1008F00001C02E2B2C938FBF08958F929F92AF92A1
:10090000BF92CF92DF92EF92FF926B017C010E9427
:1009100056024B015C01C114D104E104F104F1F071
:100920000E945602DC01CB0188199909AA09BB096A
:10093000883E9340A105B10570F321E0C21AD108A9
:10094000E108F10888EE880E83E0981EA11CB11C16
:10095000C114D104E104F10419F7DDCFFF90EF9049
:10096000DF90CF90BF90AF909F908F9008952FB75A
:10097000F8946091F2047091F3048091F4049091E2
:10098000F5042FBF08958F929F92AF92BF92CF929E
:10099000DF92EF92FF92CF93DF93EC016B010E9405
:1009A000B7044B015C01E12CF12C8D819E81DC01AF
:1009B000ED91FC910680F781E02D099597FF0FC01E
:1009C0000E94B704DC01CB0188199909AA09BB0967
:1009D0008C159D05AE05BF0540F38FEF9FEFDF91AE
:1009E000CF91FF90EF90DF90CF90BF90AF909F900E
:1009F0008F9008952F923F924F925F926F927F92C5
:100A00008F929F92AF92BF92CF92DF92EF92FF921E
:100A10000F931F93CF93DF93CDB7DEB72B970FB60E
:100A2000F894DEBF0FBECDBF9B878A875B0119019B
:100A3000FD82EC823A01600E711E872C7B82912C24
:100A400044244A94542C9B01240F351F3F832E834A
:100A50009101200F311F39872887EA85FB85808522
:100A6000981608F036C1AA85BB8514965C924E9202
:100A7000139715968D919C911697DC01ED91FC9141
:100A80000190F081E02D6FEF09956FEF8A859B85CE
:100A90000E94C702EA85FB8585819681DC01ED9184
:100AA000FC910190F081E02DAA85BB856C910995A0
:100AB000EA85FB856081CF010E94C702AA85BB85BC
:100AC00015968D919C911697DC01ED91FC9101900A
:100AD000F081E02D682D09956B818A859B850E94A8
:100AE000C702EA85FB8585819681DC01ED91FC9149
:100AF0000190F081E02D662D0995662D8A859B85F4
:100B00000E94C70275012E813F81E216F306B1F003
:100B1000EA85FB85858196818701DC01ED91FC9159
:100B20000190F081E02DD7016D917D010995F801CB
:100B300060818A859B850E94C702E5CF7101AA85E5
:100B4000BB8515968D919C91169728853985E2165F
:100B5000F30691F08701DC01ED91FC910190F081A9
:100B6000E02DD7016D917D010995F80160818A859D
:100B70009B850E94C702E3CFDC01ED91FC91AA8521
:100B8000BB8514966C910190F081E02D0995EA8562
:100B9000FB8585819681DC01ED91FC910190F081CE
:100BA000E02DAA85BB8513966C91099564E670E0EB
:100BB0008A859B850E94C3048F3F910509F07DC003
:100BC000EA85FB85548243826FEFCF010E94C70202
:100BD00065E070E08A859B850E94C304AA85BB8579
:100BE0006C91262F30E08217930709F066C0CD0183
:100BF0000E94C7026AE070E08A859B850E94C30458
:100C00007C0197FD5AC0682F8A859B850E94C70288
:100C10006AE070E08A859B850E94C3048C0197FD81
:100C20004CC0682F8A859B850E94C702EA82198280
:100C3000E981FA810E0F1F1FE12CF12C65E070E0B5
:100C40008A859B85E016F106A9F0EC14FD0491F06D
:100C50000E94C30497FD0AC0EC81FD81EE0DFF1DCB
:100C60008083682F8A859B850E94C702FFEFEF1A59
:100C7000FF0AE4CF0E94C3047C0197FD1EC065E01B
:100C800070E08A859B850E94C30497FD16C0FE2CE8
:100C9000EE248E0D9F1DAA85BB8513962D913C9148
:100CA00014972817390749F48C918F5F8C93C801EA
:100CB000C016D10680F4C6010EC0939464E670E0BD
:100CC00080E090E00E947D048A859B850E94AB02B3
:100CD000C4CE8FEF9FEF2B960FB6F894DEBF0FBEFA
:100CE000CDBFDF91CF911F910F91FF90EF90DF90DB
:100CF000CF90BF90AF909F908F907F906F905F90BC
:100D00004F903F902F900895AF92BF92CF92DF9275
:100D1000EF92FF920F931F93CF93DF9300D01F9218
:100D2000CDB7DEB7FC01E85AFF4F20812F3F11F10C
:100D30005A019B0147E64983319640814A8339979E
:100D4000CC24C394D12CCE0103967C01850142E0D2
:100D500050E0BE016F5F7F4F808191810E94FA0455
:100D60008B81882329F090E091958195910904C0A9
:100D7000C50102C08FEF9FEF0F900F900F90DF9192
:100D8000CF911F910F91FF90EF90DF90CF90BF9088
:100D9000AF9008958F929F92AF92BF92CF92DF92C1
:100DA000EF92FF920F931F93CF93DF931F92CDB7D4
:100DB000DEB75C019B014A01DC0152968C918111E6
:100DC00005C07B018B01040F151F31C080E58983AD
:100DD000C12CD12CE12CF12C8A0141E050E0BE0164
:100DE0006F5F7F4FF501848595850E94FA0422C0CC
:100DF000D5015596ED91FC91569753968C9153974A
:100E000091E0980F53969C93D7019D917D01E80F37
:100E1000F11D9083F50193898489981308C001908E
:100E2000F081E02D0284F385E02DC5010995E016DF
:100E3000F106F1F6C4010F90DF91CF911F910F9150
:100E4000FF90EF90DF90CF90BF90AF909F908F90EA
:100E50000895CF92DF92EF92FF920F931F93680154
:100E6000790100E010E020E030E00E94FA041F91D8
:100E70000F91FF90EF90DF90CF900895EF92FF9247
:100E80000F931F93CF93DF9300D0CDB7DEB7FC0154
:100E90002685211115C07C01178680E7898380E2B1
:100EA0008A832089318900E210E042E050E0BE01EF
:100EB0006F5F7F4F848595850E942907F70186879C
:100EC0000F900F90DF91CF911F910F91FF90EF90B6
:100ED0000895CF93DF93EC010E943E078E8588230F
:100EE00041F08F85E889F989E80FF11D808190E054
:100EF00002C08FEF9FEFDF91CF910895CF93DF93E3
:100F0000EC010E943E078E85882369F081508E8710
:100F1000E889F9898F8591E0980F9F87E80FF11D87
:100F2000808190E002C08FEF9FEFDF91CF91089515
:100F3000CF93DF93EC010E943E078E8590E0DF9116
:100F4000CF9108950F931F9300E010E020E030E070
:100F50000E9429071F910F910895CF93DF9300D02E
:100F60001F92CDB7DEB729E42983FC0126852A83A9
:100F70006B8343E050E0BE016F5F7F4F84859585B2
:100F80000E94A20781E090E00F900F900F90DF91F8
:100F9000CF910895CF93DF93FC01228921110BC0DB
:100FA000EC01438950E065897689848595850E94A6
:100FB000A20781E08B8BDF91CF910895CF93DF93D0
:100FC00000D0CDB7DEB7DC0152968C9152978823C2
:100FD00079F080E589836A8342E050E0BE016F5F6B
:100FE0007F4F1C968D919C911D970E94A2071FC058
:100FF0005596ED91FC91569753968C91539791E0AD
:10100000980F53969C935397E80FF11D6083539666
:101010009C91539754968C915497981308C0ED91D6
:10102000FC9111970284F385E02DCD01099581E0B3
:1010300090E00F900F90DF91CF9108951F920F9243
:101040000FB60F9211242F933F938F939F93AF93DB
:10105000BF938091F2049091F304A091F404B091B5
:10106000F5043091F10423E0230F2D3720F401968D
:10107000A11DB11D05C026E8230F0296A11DB11DBB
:101080002093F1048093F2049093F304A093F4046A
:10109000B093F5048091F6049091F704A091F804C0
:1010A000B091F9040196A11DB11D8093F6049093AF
:1010B000F704A093F804B093F904BF91AF919F9106
:1010C0008F913F912F910F900FBE0F901F90189509
:1010D0001F920F920FB60F9211242F933F934F93AD
:1010E0005F936F937F938F939F93AF93BF93EF9390
:1010F000FF93E0910201F09103010995FF91EF91B7
:10110000BF91AF919F918F917F916F915F914F911F
:101110003F912F910F900FBE0F901F9018951F9227
:101120000F920FB60F9211242F933F934F935F931B
:101130006F937F938F939F93AF93BF93EF93FF939F
:10114000E0910001F09101010995FF91EF91BF91AC
:10115000AF919F918F917F916F915F914F913F914F
:101160002F910F900FBE0F901F901895EF92FF9246
:101170001F93CF93DF931F92CDB7DEB77C01162F5D
:1011800060E0FC01868549830E943104F701948563
:1011900085859CBD8DBD1EBD000049810DB407FE37
:1011A000FDCF8EB54EBD00000DB407FEFDCF1EB5C0
:1011B00061E0F70186850E943104812F0F90DF9155
:1011C000CF911F91FF90EF9008956F7740E00C94BE
:1011D000B608EF92FF921F93CF93DF931F92CDB784
:1011E000DEB77C01DC01ED91FC910480F581E02DFE
:1011F0000995892B99F06DE0C7010E94E508482FF9
:1012000060E0C70149830E94E508182F49816DE815
:10121000C7010E94B608812F90E002C08FEF9FEFB8
:101220000F90DF91CF911F91FF90EF900895CF9392
:10123000DF93EC01E881F9810480F581E02D0995C7
:10124000892B59F08E899F8901969F8B8E8B60E048
:10125000CE010E94E50890E002C08FEF9FEFDF9182
:10126000CF910895CF93DF93EC0163E10E94E508ED
:10127000282F30E08E899F89A901481B590BCA018C
:10128000DF91CF9108958F929F92AF92BF92CF92AC
:10129000DF92FF920F931F93CF93DF931F92CDB7EF
:1012A000DEB76C01B62E4A0162E279830E94E5083E
:1012B000F82E90E09C01280D391D79812F3F3105D2
:1012C00031F028F02FEF30E04901881A990A0B2DF0
:1012D000172F5801A80CB91C0A151B0541F0F8017D
:1012E00041918F0160E8C6010E94B608F5CF482DF4
:1012F0004F0D62EAC6010E94B608C4010F90DF914B
:10130000CF911F910F91FF90DF90CF90BF90AF9042
:101310009F908F9008950F931F93CF93DF9300D0EA
:10132000CDB7DEB78C01FC018189882369F087E79E
:10133000898386858A8342E050E0BE016F5F7F4FDC
:10134000848595850E94A207F801118A0F900F905D
:10135000DF91CF911F910F910895AF92BF92CF92DD
:10136000DF92EF92FF920F931F93CF93DF9300D002
:1013700000D0CDB7DEB75C0182E58B83D5011F9627
:10138000ED91FC915097048115812081318142E0DB
:10139000C42ED12CFE0131967F0141E050E0BE0108
:1013A0006D5F7F4F1C968D919C911D970E94FA0452
:1013B0008A81D5011E968C931E971F960D911C91C4
:1013C00050970115110531F0C8010E943203C80180
:1013D0000E94121DF501108A17868981811102C0B1
:1013E00081E0818B32E7F32EF982D5011E968C9134
:1013F0001E978A8301E010E09E012D5F3F4F42E07F
:1014000050E0BE016F5F7F4F1C968D919C911D97A0
:101410000E9429078B81813039F464E670E080E016
:1014200090E00E947D04E0CF87E58B83F5018685FF
:101430008C8302E010E09E012F5F3F4F42E050E0BE
:10144000BE016D5F7F4F848595850E942907898144
:1014500090E0982F88272A81820F911D0F900F907E
:101460000F900F90DF91CF911F910F91FF90EF9010
:10147000DF90CF90BF90AF900895CF92DF92EF9220
:10148000FF920F931F93CF93DF936C017B01FC01BD
:10149000C785D0890C811D810F5F1F4FB801CE0118
:1014A0000E94E002882361F0288139818C819D812E
:1014B0006BE872E0820F931F0E94821E1D830C83D3
:1014C000F601C785D089F70184819581E080F1809C
:1014D0000C811D81E114F104A9F0009799F0080F27
:1014E000191FB801CE010E94E002882359F028811B
:1014F00039818C819D81B701820F931F0E94821ECA
:101500001D830C83DF91CF911F910F91FF90EF907E
:10151000DF90CF900895EF92FF920F931F93CF9398
:10152000DF937C018B010E948B0986E090E00E9492
:101530007D1CEC01198218821B821A821D821C827A
:101540008017910751F0F801608171816115710573
:1015500021F0448155810E940703F701D08BC78792
:10156000DF91CF911F910F91FF90EF900895EF922F
:10157000FF920F931F93CF93DF9300D01F92CDB7AD
:10158000DEB7FC012289211118C07C01138A8FE487
:10159000898380E48B8386858A839F012C5E3F4FFD
:1015A00000E410E043E050E0BE016F5F7F4F8485B0
:1015B00095850E942907F701828B0F900F900F905D
:1015C000DF91CF911F910F91FF90EF900895CF93EE
:1015D000DF93EC010E94B70A8A89882331F08B8956
:1015E000C80FD11D8C8990E002C08FEF9FEFDF9173
:1015F000CF910895CF93DF93EC010E94B70A8A89B7
:10160000882359F081508A8B8B8991E0980F9B8BAE
:10161000C80FD11D8C8990E002C08FEF9FEFDF9142
:10162000CF910895CF93DF93EC010E94B70A8A8986
:1016300090E0DF91CF910895EF92FF920F931F9367
:10164000CF93DF9300D01F92CDB7DEB77C0128E5A2
:10165000E20EF11CF70120812F3FB9F026E6298325
:10166000319620812A83399701E010E09E012D5F99
:101670003F4F42E050E0BE016F5F7F4F808191811C
:101680000E9429078FEFF70180830F900F900F9032
:10169000DF91CF911F910F91FF90EF900895EF92FE
:1016A000FF920F931F93CF93DF9300D01F92CDB77C
:1016B000DEB7FC012485211128C07C01158687E452
:1016C00089838FE38B83E75AFF4F80818A83970159
:1016D000205F3F4F399700E410E043E050E0BE0147
:1016E0006F5F7F4F808191810E9429079C0121506B
:1016F00031092E3F3F4F18F0F701148606C0F7015D
:1017000095859F5F9587815084870F900F900F90EC
:10171000DF91CF911F910F91FF90EF900895CF939C
:10172000DF93EC010E944F0B8C8590E0DF91CF910D
:101730000895CF93DF93EC010E944F0B8C85882393
:1017400031F08D85C80FD11D888990E002C08FEFE0
:101750009FEFDF91CF910895CF93DF93EC010E942B
:101760004F0B8C85882359F081508C878D8591E0B3
:10177000980F9D87C80FD11D888990E002C08FEF18
:101780009FEFDF91CF910895CF93DF93EC0188E134
:1017900091E099838883CE010E941C0BCE018E5A62
:1017A0009F4FDF91CF910C9432036F927F928F9273
:1017B0009F92AF92BF92CF92DF92EF92FF920F93E0
:1017C0001F93CF93DF93CDB7DEB728970FB6F8946A
:1017D000DEBF0FBECDBF5C018B01FC011382128204
:1017E00088EE93E0A0E0B0E084839583A683B7837E
:1017F00088E191E0918380833501F0E56F0E711CE3
:10180000F301318320837501F2E5EF0EF11C6AE8E4
:1018100072E0C70148870E943703450188E5880EBA
:10182000911C4885F40140830115110569F0F80108
:1018300001900020E9F73197AF01401B510BB8012F
:10184000C7010E9407030EC0F701808191810097B4
:1018500011F00E94121DF70111821082158214826C
:101860001382128282E7898387E78A8381E68B83EA
:1018700086E48E83F4018081FE01E80FF11D8181F1
:101880008F8381E090E0F50197878687EA5AFF4FC2
:1018900000811181F7012081318182E0C82ED12C95
:1018A000CE0104967C0142E050E0BE016A5F7F4FAA
:1018B000F301808191810E94FA048C81882321F0B8
:1018C0008FEFF401808307C0F501E75AFF4F8D8148
:1018D0008083F501148628960FB6F894DEBF0FBEFC
:1018E000CDBFDF91CF911F910F91FF90EF90DF90CF
:1018F000CF90BF90AF909F908F907F906F90089502
:10190000CF93DF93EC018A89811108C08D899E896C
:10191000009711F00E94121D81E08A8B88899989B5
:10192000009721F00E94121D198A188ADF91CF9129
:101930000895BF92CF92DF92EF92FF920F931F9381
:10194000CF93DF93CDB7DEB72E970FB6F894DEBFF7
:101950000FBECDBF7C01C7010E94AB0268EE73E0F1
:1019600080E090E00E947D04D70115968D919C91B6
:101970001697DC01ED91FC910480F581E02D09952D
:101980001816190644F385E0D82ECC24C39492E3AC
:10199000B92EEAE0F1E0DE0111968D2D01900D9255
:1019A0008A95E1F7F701C08645E050E0BE016F5F20
:1019B0007F4FC7010E94A20763E0D70115968D9162
:1019C0009C9116970E944C036AEF70E080E090E0D3
:1019D0000E947D0468ED71E0F701858196810E9487
:1019E00053036AEF70E080E090E00E947D0466EDB2
:1019F00071E0D70115968D919C9116970E94530323
:101A000064EF71E080E090E00E947D046AEC71E098
:101A1000F701858196810E94530364EF71E080E0B5
:101A200090E00E947D04C7010E94AB02EFE0F1E06C
:101A3000DE0116968D2D01900D928A95E1F7D70162
:101A40001896BC9204E010E09E01255F3F4F45E0F0
:101A500050E0BE016A5F7F4FC7010E9429078F3F98
:101A6000BFEF9B0739F468EE73E080E090E00E94DE
:101A70007D048FCF2B852111FFCF049701F52C8595
:101A800030E02053310984E6829FA001839F500DEE
:101A900011242D8530E0205331096AE0629FC00196
:101AA000639F900D1124840F951F2E8530E02053E5
:101AB0003109820F931FF7019283818307C084E667
:101AC00090E0D70112969C938E93119782E3F701D1
:101AD00080872E960FB6F894DEBF0FBECDBFDF9184
:101AE000CF911F910F91FF90EF90DF90CF90BF901B
:101AF0000895CF93DF93EC01863091052CF08D3063
:101B000091058CF4069789F445EC61EB8AEF94E03B
:101B10000E94B6084CE067EB8AEF94E00E94B6089A
:101B2000C6E0D0E00EC0CCE0D0E043EC61EB8AEF41
:101B300094E00E94B6084AE067EB8AEF94E00E94C6
:101B4000B6086EE18AEF94E00E94E50894E0CC0FBD
:101B5000DD1F9A95E1F78F704C2F482B6EE98AEFC5
:101B600094E0DF91CF910C94B608AF92BF92CF92E0
:101B7000DF92EF92FF920F931F93CF93DF937093B7
:101B80000F0560930E056B017C01FF0CCC08DC2C6B
:101B900076019B01AC016C2D7C2D8C2D9C2D03E1DD
:101BA0000E94991BA12CE8E4BE2EF8EECF2EDD2476
:101BB000D394E12CF12C00E010E00E943C1BF22EAB
:101BC000B32E142FD52FC62FC72ED82EE92E00E105
:101BD0000E94B41B422F66E88AEF94E00E94B60888
:101BE0002F2D3B2D412F5D2F6C2F7C2D8D2D9E2D6C
:101BF00008E00E94B41B422F67E88AEF94E00E943D
:101C0000B6084F2D68E88AEF94E0DF91CF911F91DD
:101C10000F91FF90EF90DF90CF90BF90AF900C941A
:101C2000B608CF93DF93BC018AEC95E00E94530382
:101C3000EC018AEC95E00E94D5038C0F9D1FDF918B
:101C4000CF91089590E0FC01EA5EFD4F2491FC01E4
:101C5000EE5FFD4F8491882399F090E0880F991FE3
:101C6000FC01E850FE4FA591B491FC01E251FE4FFA
:101C7000859194918FB7F894EC91E22BEC938FBF00
:101C80000895CF92DF92EF92FF920F931F93CF931D
:101C9000DF9377FF1DC06A017B01EC016DE20E94BA
:101CA0004C038C0144275527BA014C195D096E0974
:101CB0007F092AE0CE010E948C03800F911FDF91E3
:101CC000CF911F910F91FF90EF90DF90CF900895EB
:101CD0002AE0DF91CF911F910F91FF90EF90DF905D
:101CE000CF900C948C030F931F93CF93DF93EC0151
:101CF000AB01770F660B770B0E94410E8C01CE0172
:101D00000E94D503800F911FDF91CF911F910F91FA
:101D100008954F925F926F927F928F929F92AF92AF
:101D2000BF92CF92DF92EF92FF926B017C019B01F9
:101D3000AC010E94781C882319F061EA72E01AC095
:101D400046015701E894B7F82FEF3FEF4FE75FE701
:101D5000C501B4010E94781C811112C02FEF3FEF22
:101D60004FE75FE7C501B4010E943E23181644F413
:101D700065EA72E08AEC95E00E9477037C018BC0F3
:101D80002FEF3FEF4FE75FE4C701B6010E94731CDE
:101D900018161CF469EA72E0EDCF2FEF3FEF4FE722
:101DA0005FECC701B6010E943E2387FDF3CF20E020
:101DB00030E0A901C701B6010E943E2387FF0BC096
:101DC0006DE28AEC95E00E944C035C01F7FAF09416
:101DD000F7F8F09402C0A12CB12C2AE037ED43EAC9
:101DE0005BE3C701B6010E94D11B2B013C010E949D
:101DF000441C6B017C010E9443239B01AC01C30185
:101E0000B2010E94D01B2B013C012AE0B701A601C0
:101E10008AEC95E00E948C037C01EA0CFB1C6DEAC5
:101E200072E08AEC95E00E947703E80EF91E20E04C
:101E300030E040E251E4C301B2010E94A4232B012F
:101E40003C010E94441C4B01A12CB12C2AE0B5019D
:101E5000A4018AEC95E00E948C03E80EF91EC501EE
:101E6000B4010E9443239B01AC01C301B2010E9453
:101E7000D01B20E030E040E251E40E94A4230E9405
:101E8000441CAB0160E070E02AE08AEC95E00E941F
:101E90008C03E80EF91E8AEC95E00E94D5038E0DA6
:101EA0009F1DFF90EF90DF90CF90BF90AF909F90DD
:101EB0008F907F906F905F904F900895EF92FF9278
:101EC0000F931F93CF93DF93CDB7DEB7CA55D109D8
:101ED0000FB6F894DEBF0FBECDBF7C011C821B8203
:101EE00088EE93E0A0E0B0E08D839E83AF83B88757
:101EF00008E211E01A83098385EB95E09E878D87C0
:101F00001A8A1B8A1C8A6FEA72E0CE018B5A9F4F95
:101F10000E943703BE016B5A7F4FCE0101960E948B
:101F20008B0ACE018B5A9F4F0E943203B701CE011C
:101F30008B5A9F4F0E943703BE016B5A7F4FCE01D1
:101F400001960E943D0ACE018B5A9F4F0E94320398
:101F5000CE0101960E94AD097C011A830983CE014E
:101F600001960E948B0981E0EF2809F080E0C65AB3
:101F7000DF4F0FB6F894DEBF0FBECDBFDF91CF911C
:101F80001F910F91FF90EF900895109213051092FA
:101F900012056DE18AEF94E00E94E508482F4E7F1C
:101FA0006DE98AEF94E00C94B60843E861E88AEFA3
:101FB00094E00E94B60862E18AEF94E00E94E5088E
:101FC00083FFF9CF48E062E98AEF94E00E94B60807
:101FD00081E090E0089541E861E88AEF94E00E9492
:101FE000B6080E94C50F40E06DE88AEF94E00E94B9
:101FF000B60840E062EA8AEF94E00E94B60881E009
:1020000090E00895CF93DF93CDB7DEB7C45CD109DC
:102010000FB6F894DEBF0FBECDBF789484B5826052
:1020200084BD84B5816084BD85B5826085BD85B57C
:10203000816085BD80916E00816080936E001092FA
:102040008100809181008260809381008091810075
:102050008160809381008091800081608093800006
:102060008091B10084608093B1008091B000816064
:102070008093B00080917A00846080937A00809190
:102080007A00826080937A0080917A0081608093E8
:102090007A0080917A00806880937A001092C10063
:1020A000E091BE05F091BF05A089B18982E08C93D3
:1020B000A485B5851C92A685B78580E18C93108E8A
:1020C000A489B58986E08C93A289B3898C918061BB
:1020D0008C93A289B3898C9188608C93A289B389EF
:1020E0008C9180688C930288F389E02D80818F7DAC
:1020F00080838091BC05811107C081E08093BC057D
:1021000085EB95E00E94990C8091D6059091D705BA
:10211000DC0117962C911797211105C021E0179625
:102120002C930E94990C8AEC95E00E94800C80E22E
:1021300090E00E947D1C9093DB058093DA0564E2B9
:1021400071E08AEC95E00E945303E091CA05F0919A
:10215000CB054091C8055091C9056091C4057091A7
:10216000C5050280F381E02D8AEC95E009958AECA3
:1021700095E00E94D50325EB35E041E06CE771E086
:10218000CE0101960E94D50B4091C8055091C9051A
:102190006091C4057091C505CE0101960E94840628
:1021A000CE0101960E941C0BCE0101960E94C40B29
:1021B0001C821B8288EE93E0A0E0B0E08D839E83BA
:1021C000AF83B88788E291E09A83898385EB95E0B5
:1021D0009E878D871A8A1B8A1C8A7E01BBE5EB0EBF
:1021E000F11C80E2F70111928A95E9F78E010B54F8
:1021F0001F4F60E971E0C8010E943703B801CE01AA
:1022000001960E948B0AC8010E94320364E971E0C2
:10221000C8010E943703B801CE0101960E943D0A11
:10222000C8010E94320368E971E0C8010E943703C7
:10223000B801CE0101960E943D0AC8010E943203F6
:10224000CE0101960E94AD0937015701F9E0AF0EAA
:10225000B11C6701CE0101960E94B70A8B898823C1
:1022600059F0CA14DB0441F0CE0101960E94FA0A2B
:10227000D6018D936D01EECFC7010E945A21609364
:10228000C5037093C6038093C7039093C80380E28D
:10229000D7011D928A95E9F760E971E0C8010E94B3
:1022A0003703B801CE0101960E948B0AC8010E9433
:1022B000320364E971E0C8010E943703B801CE011E
:1022C00001960E943D0AC8010E9432036DE172E04E
:1022D000C8010E943703B801CE0101960E943D0A51
:1022E000C8010E943203CE0101960E94AD09570138
:1022F000BAE0AB0EB11C6701CE0101960E94B70A8D
:102300008B89882359F0CA14DB0441F0CE01019671
:102310000E94FA0AF60181936F01EECFC7010E9475
:102320005A216093CB037093CC038093CD03909399
:10233000CE0380E2F70111928A95E9F760E971E036
:10234000C8010E943703B801CE0101960E948B0A92
:10235000C8010E94320364E971E0C8010E9437039A
:10236000B801CE0101960E943D0AC8010E943203C5
:1023700068E372E0C8010E943703B801CE010196FC
:102380000E943D0AC8010E943203CE0101960E94BC
:10239000AD096701F3E0CF0ED11C5701CE010196C4
:1023A0000E94B70A8B89882359F0AC14BD0441F010
:1023B000CE0101960E94FA0AD5018D935D01EECF00
:1023C000C7010E945E211816190614F08AE090E0F9
:1023D0009093C4038093C30380E2F70111928A951E
:1023E000E9F760E971E0C8010E943703B801CE0146
:1023F00001960E948B0AC8010E94320364E971E0D1
:10240000C8010E943703B801CE0101960E943D0A1F
:10241000C8010E94320363EB71E0C8010E943703D8
:10242000B801CE0101960E943D0AC8010E94320304
:10243000CE0101960E94AD095701CE0101960E947E
:10244000B70A8B89882359F0AC14BD0441F0CE0142
:1024500001960E94FA0AD5018D935D01EECFC70166
:102460000E945E211816190614F089E090E09093FE
:10247000CA038093C90380E2F70111928A95E9F7B4
:1024800060E971E0C8010E943703B801CE010196EE
:102490000E948B0AC8010E94320364E971E0C801FE
:1024A0000E943703B801CE0101960E943D0AC8017F
:1024B0000E94320366EC71E0C8010E943703B80144
:1024C000CE0101960E943D0AC8010E943203CE014E
:1024D00001960E94AD095701F2E0AF0EB11C6701F1
:1024E000CE0101960E94B70A8B89882359F0CA143D
:1024F000DB0441F0CE0101960E94FA0AD6018D93C9
:102500006D01EECFC7010E945E219093BC028093C3
:10251000BB0280E2D7011D928A95E9F760E971E07C
:10252000C8010E943703B801CE0101960E948B0AB0
:10253000C8010E94320364E971E0C8010E943703B8
:10254000B801CE0101960E943D0AC8010E943203E3
:1025500069E472E0C8010E943703B801CE01019618
:102560000E943D0AC8010E943203CE0101960E94DA
:10257000AD094701B5E08B0E911C6701CE010196B4
:102580000E94B70A8B89882359F0C814D90441F0F6
:10259000CE0101960E94FA0AF60181936F01EECFF7
:1025A000C7010E947C216093B3027093B4028093B0
:1025B000B5029093B60280E2F70111928A95E9F78D
:1025C00060E971E0C8010E943703B801CE010196AD
:1025D0000E948B0AC8010E94320364E971E0C801BD
:1025E0000E943703B801CE0101960E943D0AC8013E
:1025F0000E94320360E672E0C8010E943703B8010E
:10260000CE0101960E943D0AC8010E943203CE010C
:1026100001960E94AD09CE0101960E94B70A8B89EE
:10262000882359F06A147B0441F0CE0101960E9480
:10263000FA0AD3018D933D01EECFC7010E945E21BE
:102640008A30910508F458C488E498EEA1E0B0E01F
:102650008093B7029093B802A093B902B093BA02E4
:1026600088E291E09A838983CE0101960E948B09CA
:102670008FEF90E00E94110E60EF70E08AEC95E021
:102680000E9453036091C5037091C6038091C703F4
:102690009091C8030E94890E61EE70E08AEC95E08B
:1026A0000E9453036091CB037091CC038091CD03C2
:1026B0009091CE030E94890E6FEC70E08AEC95E059
:1026C0000E9453036091C3037091C4038AEC95E0A8
:1026D0000E94730E6AEB70E08AEC95E00E9453034F
:1026E0006091C9037091CA038AEC95E00E94730E51
:1026F0006AEA70E08AEC95E00E9453036091BB02A5
:102700007091BC028AEC95E00E94730E6EE970E055
:102710008AEC95E00E9453034091B7025091B802B1
:102720006091B9027091BA028AEC95E00E94410E64
:102730008AEC95E00E94D5036DE870E08AEC95E0A4
:102740000E9453034091B3025091B4026091B502CC
:102750007091B6028AEC95E00E94410E8AEC95E0F9
:102760000E94D5036091C5037091C6038091C70391
:102770009091C8030E943D1C4B015C0180910805AB
:102780000E94220E80910A050E94220E60E0809134
:102790000A050E9431046AE070E080E090E00E9447
:1027A0007D0461E080910A050E9431046AE070E0D6
:1027B00080E090E00E947D0461E0809108050E9425
:1027C0003104DFB6F8948091B202811124C0ECE0AC
:1027D000F2E08491E0E2F2E09491E82FF0E0EE0F75
:1027E000FF1FE850FE4FA591B491EC91E92321F42D
:1027F00061E08AE00E9431048AE00E94220E8CB5DA
:1028000080618CBD8CB580648CBD8DE00E94220EF1
:102810008BE00E94220E8091B2028F5F8093B20201
:10282000DFBE62E48AEF94E00E94E508823109F09D
:1028300095C340E861E88AEF94E00E94B608C501BC
:10284000B4010E94B50D40E06EE88AEF94E00E946A
:10285000B60840E06FE88AEF94E00E94B6086CE0AA
:102860008AEF94E00E94E508482F43606CE88AEF05
:1028700094E00E94B60844E066EA8AEF94E00E9481
:10288000B6084FE869E88AEF94E00E94B60841E88C
:1028900061E88AEF94E00E94B6086091C5037091E8
:1028A000C6038091C7039091C8030E943D1C0E94FB
:1028B000B50D8091C3039091C4030E94790D60917E
:1028C000B7027091B8028091B9029091BA020E9449
:1028D00045234B015C0120E030EC43EF55E40E94BE
:1028E0003E2318160CF056C020E030E842E256E4D1
:1028F000C501B4010E943E2318160CF04EC020E022
:1029000030EC43E756E4C501B4010E943E2318169B
:102910000CF046C020E030E842EA56E4C501B401BC
:102920000E943E2318160CF03EC020E034E244EF33
:1029300056E4C501B4010E943E231816BCF520E000
:1029400034EE42E257E4C501B4010E943E2318165A
:1029500084F520E034E244E757E4C501B4010E9465
:102960003E2318164CF520E034E244EF57E4C5014D
:10297000B4010E943E23181614F520E034E244E727
:1029800058E4C501B4010E943E231816DCF449E066
:1029900050E01AC040E050E017C041E050E014C0E1
:1029A00042E050E011C043E050E00EC044E050E08F
:1029B0000BC045E050E008C046E050E005C047E0ED
:1029C00050E002C048E050E06DE18AEF94E0CD5362
:1029D000DF4F4883C35CD040CC53DF4F5883C45C87
:1029E000D0400E94E508CD53DF4F4881C35CD04002
:1029F000CC53DF4F5881C45CD040B4E0440F551F26
:102A0000BA95E1F78F70482B6DE98AEF94E00E9448
:102A1000B608C090BB02D090BC02B5E0CB16D10482
:102A200044F0E9E0CE16D1043CF0A8E0CA2ED12C47
:102A300003C0F5E0CF2ED12C6DE18AEF94E00E9427
:102A4000E508F4E0CF1AD108CC0CDD1C817F482FBB
:102A50004C296DE98AEF94E00E94B60844E369EBE3
:102A60008AEF94E00E94B6088090B3029090B4027E
:102A7000A090B502B090B6027727B7FC7A956B2D7F
:102A80005A2D492D60EA8AEF94E00E94B608482D3D
:102A900061EA8AEF94E00E94B60868EE73E080E095
:102AA00090E00E947D04E8EE4E2EE3E05E2E612C65
:102AB000712C98012E5F3F4FCF53DF4F398328830E
:102AC000C15CD0408091EF049091F004009709F030
:102AD0009BC08091C3039091C4030E94790D0E9412
:102AE000C50F45E861E88AEF94E00E94B60862E10C
:102AF0008AEF94E00E94E508D82E0E94C50F4D2D64
:102B000062E98AEF94E00E94B608D6FE27C0D5FCA1
:102B100025C0109211051092100580911205909118
:102B20001305892B11F062E201C063E18AEF94E0A2
:102B30000E94E508C82ED12C60E18AEF94E00E9443
:102B4000E508482F6DE88AEF94E00E94B60841E856
:102B500061E88AEF94E00E94B60815C061E08AEF50
:102B600094E00E94E508863861F040E06DE88AEF65
:102B700094E00E94B60846E861E88AEF94E00E947B
:102B8000B608C12CD12CD092BE03C092BD03CD2873
:102B900009F4ADCF8AEC95E00E94D50366E671E0BA
:102BA0008AEC95E00E9453034091BD035091BE030F
:102BB000052E000C660B770B8AEC95E00E94410E07
:102BC0008FE591E00E94110EEDEBF2E0DF0120E0D5
:102BD00031E01D9221503040E1F76F01812C912CA2
:102BE000540114018AEF94E00E943209892B09F400
:102BF00013C1811431E09306A104B10409F04FC25E
:102C0000C12CDD24D39409C1019709F0D6C00E94DC
:102C1000B7046093C0057093C1058093C20590937B
:102C2000C3056093BF037093C0038093C103909367
:102C3000C2038091BF039091C003A091C103B091E2
:102C4000C2034091C0055091C1056091C2057091C9
:102C5000C305841B950BA60BB70B80319742A105CA
:102C6000B1050CF061C00E94B7046093BF0370937C
:102C7000C0038093C1039093C20386E092E00E9458
:102C80005E0F811107C068EE73E080E090E00E9463
:102C90007D04CFCF25EB35E040E066E072E0CE0169
:102CA00001960E94D50BEFECF3E020E031E01192A9
:102CB00021503040E1F74FEC242E43E0342E5101F7
:102CC000C12CD12CCE0101960E944F0B8D858823FB
:102CD00009F415C2C114E1E0DE0609F410C2CE0108
:102CE00001960E94AC0BD5018D935D01BFEFCB1A0D
:102CF000DB0AE8CF6091C5037091C6038091C703DA
:102D00009091C8030E943D1C0E94B50D8091C303A1
:102D10009091C4030E94790D82E791E00E94110E08
:102D2000CE0101960E94C40B1C821B824D825E82E2
:102D30006F82788638E2C32E31E0D32EDA82C982E0
:102D400085EB95E09E878D871A8A1B8A1C8A66E12F
:102D500072E0C7010E943703B701CE0101960E94BD
:102D60008B0AC7010E94320369E172E0C7010E9429
:102D70003703B701CE0101960E943D0AC7010E94A8
:102D8000320366E072E0C7010E943703B701CE014B
:102D900001960E943D0AC7010E943203CE010196AE
:102DA0000E94AD091092F0041092EF04DA82C982F9
:102DB000CE0101960E948B099CC025EB35E040E0D6
:102DC0006FEC74E0CE0101960E94D50BAFECB3E03E
:102DD000E0E0F1E01D923197E9F72FEC222E23E09D
:102DE000322E5101C12CD12CCE0101960E944F0BE5
:102DF0008D85882309F44FC2C114E1E0DE0609F491
:102E00004AC2CE0101960E94AC0BD5018D935D01A3
:102E1000BFEFCB1ADB0AE8CF64016AE872E08AEC04
:102E200095E00E9477038AEC95E00E94D50325EB9C
:102E300035E041E061E772E0C7010E94D50B62E82E
:102E400072E0C7010E9477036AE18AEF94E00E9472
:102E5000E508B82E60910E0570910F05072E000C45
:102E6000880B990B0E94452324E832EF4EE45EE480
:102E70000E943E2387FD77C08DE990E06B2D70E0C6
:102E8000681B790BC7010E94730E6DED71E0C701DD
:102E90000E9477036091BD037091BE03C7010E9439
:102EA000730EC7010E941C0B25EB35E041E063EE79
:102EB00071E0CE0101960E94D50BA1016DEB72E08D
:102EC000CE0101960E948406CE0101960E941C0B41
:102ED0008091BD0281114AC081E090E09093F0049E
:102EE0008093EF04CE0101960E94C40BC7010E949B
:102EF000C40B0E944C02E6CDFC01EC5CFF4F0C942D
:102F0000341B88E79EE1A0E0B0E0A2CB80EA98E223
:102F1000A0E0B0E09DCB80EF9CE3A0E0B0E098CBD8
:102F200080E491E5A0E0B0E093CB82E19AE7A0E0F5
:102F3000B0E08ECB84EE92EAA0E0B0E089CB84E2F0
:102F400094EFA0E0B0E084CB80E990EDA3E0B0E0A6
:102F50007FCB80E291EAA7E0B0E07ACB8CE790E00B
:102F60000E94110E9ACC84EA90E088CF8CE0D801C0
:102F70001D928A95E9F78091C1021F928F938091EB
:102F8000C0021F928F938091BF021F928F938091F6
:102F9000BE021F928F9381EF91E09F938F931F93B7
:102FA0000F930E94B91EF80101900020E9F73197B4
:102FB000E01BF10B0FB6F894DEBF0FBECDBF399703
:102FC000E0F0CF53DF4F28813981C15CD040D80178
:102FD000C12CD12CF80101900020E9F7CF01801B12
:102FE000910B0397C816D90640F4F90181919F010E
:102FF0008D93FFEFCF1ADF0AEDCFF801EC0DFD1D29
:103000001082EFECF4E080E2DF01282F1D922A9578
:10301000E9F71F930F932AEF31E03F932F931F920D
:103020008F93FF93EF930E94891E60E571E08AEC15
:1030300095E00E9453036FEC74E08AEC95E00E94E7
:1030400077038AEC95E00E94D5038FEC94E00E9410
:103050005E0F0FB6F894DEBF0FBECDBF882381F0A0
:1030600082E090E09093F0048093EF046FEC74E0C2
:103070008AEC95E00E94770388E491E00E94110EAB
:1030800064E371E08AEC95E00E9453036091EF04E1
:103090007091F0048AEC95E00E94730E23CF8AEFC2
:1030A00094E00E9417091601D6018D936D016DE51C
:1030B00071E08AEC95E00E945303B501A4018AEC0B
:1030C00095E00E94410E6BE571E08AEC95E00E946C
:1030D0005303F101408150E060E070E020E18AECB0
:1030E00095E00E948C0369E571E08AEC95E00E940E
:1030F0005303FFEF8F1A9F0AAF0ABF0A72CDCE01AA
:1031000001960E941C0B23E0C216D1045CF468EC0B
:1031100070E080E090E00E947D04CE0101960E9464
:10312000C40B87CD87E891E00E94110E812C912C71
:10313000540165E871E08AEC95E00E945303B50103
:10314000A4018AEC95E00E94410E63E871E08AECEC
:1031500095E00E945303D1014D911D0150E060E0C4
:1031600070E020E18AEC95E00E948C0361E871E058
:103170008AEC95E00E945303BFEF8B1A9B0AAB0ABF
:10318000BB0A8C149D04ACF28AEC95E00E94D50336
:103190000E94B7046093BF037093C0038093C10380
:1031A0009093C2038091BF039091C003A091C1038B
:1031B000B091C2034091C0055091C1056091C20514
:1031C0007091C305841B950BA60BB70B80349F41F0
:1031D000A105B10594F40E94EB0FA6016FEC73E01A
:1031E0008AEF94E00E9443090E94D50F61E070E0ED
:1031F00080E090E00E947D04CBCF6091CB03709182
:10320000CC038091CD039091CE030E943D1C0E947F
:10321000B50D8091C9039091CA030E94790D62E0B7
:1032200070E080E090E00E947D048091BF03909167
:10323000C003A091C103B091C2034091C005509159
:10324000C1056091C2057091C305841B950BA60B47
:10325000B70B803E9E42A105B1050CF04BCD0E94FC
:10326000EB0FA6016FEC73E08AEF94E00E94430934
:103270000E94D50F61E070E080E090E00E947D0444
:103280000E94B7046093BF037093C0038093C1038F
:103290009093C203CACFCE0101960E941C0B33E06B
:1032A000C316D1040CF403C188EB91E00E94110E07
:1032B000812C912C540166EB71E08AEC95E00E9420
:1032C0005303B501A4018AEC95E00E94410E64EB22
:1032D00071E08AEC95E00E945303D1014D911D01EC
:1032E00050E060E070E020E18AEC95E00E948C0301
:1032F00062EB71E08AEC95E00E945303BFEF8B1AFA
:103300009B0AAB0ABB0A8C149D04ACF28AEC95E0D4
:103310000E94D50395E0A92EB12C0E94EB0FA601C7
:103320006FEC73E08AEF94E00E9443090E94D50F8E
:103330006AE070E080E090E00E947D046091CB0341
:103340007091CC038091CD039091CE030E943D1CDF
:103350000E94B50D8091C9039091CA030E94790D16
:1033600064E170E080E090E00E947D040E94EB0F39
:10337000A6016FEC73E08AEF94E00E9443090E947B
:10338000D50F64E170E080E090E00E947D046091E0
:10339000C5037091C6038091C7039091C8030E9432
:1033A0003D1C0E94B50D8091C3039091C4030E94FF
:1033B000790D64EF71E080E090E00E947D04E1E02F
:1033C000AE1AB10809F0A9CF89E991E00E94110E67
:1033D0006F961FAE1EAE6F97A3964CAE5DAE6EAEEF
:1033E0007FAEA39788E2C82E81E0D82E6D96DFAE1F
:1033F000CEAE6D9785EB95E0A9969FAF8EAFA9975E
:10340000AD961FAEAD97AE961FAEAE97AF961FAE00
:10341000AF9766E172E0CE018B549F4F0E94370355
:10342000BE016B547F4FCE01855A9F4F0E948B0A7D
:10343000CE018B549F4F0E94320369E172E0CE01AE
:103440008B549F4F0E943703BE016B547F4FCE01B8
:10345000855A9F4F0E943D0ACE018B549F4F0E9478
:1034600032036FEC74E0CE018B549F4F0E94370300
:10347000BE016B547F4FCE01855A9F4F0E943D0A7B
:10348000CE018B549F4F0E943203CE01855A9F4F2D
:103490000E94AD091092F0041092EF046D96DFAE19
:1034A000CEAE6D97CE01855A9F4F0E948B09CE01FB
:1034B00001961DCD84EC95E00E94320380E791E0F7
:1034C0009093CB058093CA058AEC95E00C94800C10
:1034D000CF93DF93E8E1F5E01382128248EE53E0E8
:1034E00060E070E0448355836683778388E391E0EE
:1034F0009183808385EC90E09587848784EC90E0CD
:103500009787868780EC90E0918B808B81EC90E0B0
:10351000938B828B82EC90E0958B848B86EC90E091
:10352000978B868B118E128E138E148EAAEFB4E0B9
:1035300013961C921E92129714964D935D936D9361
:103540007C93179788E491E011969C938E9380E585
:103550001C968C931C9781E01D968C931D972AE0F6
:1035600030E01F963C932E931E9729E030E0519651
:103570003C932E93509722E030E053963C932E9349
:10358000529755961C921E92549757961C921E92D3
:10359000569759961C921E9258975B961C921E92B3
:1035A0005A97C5EBD5E0D0931705C0931605AAEC42
:1035B000B5E013961C921E92129714964D935D934C
:1035C0006D937C93179720E731E011963C932E93EF
:1035D0001D96DC93CE931C971E961C921E971F96E9
:1035E0001C921F9751961C921E92509752968C9344
:1035F0001882FE83ED831F821886FA87E9876DE8BB
:1036000072E084EC95E00E9437030E94B704609357
:10361000C0057093C1058093C2059093C305DF91E7
:10362000CF910895A1E21A2EAA1BBB1BFD010DC06C
:10363000AA1FBB1FEE1FFF1FA217B307E407F50762
:1036400020F0A21BB30BE40BF50B661F771F881F3E
:10365000991F1A9469F760957095809590959B01D4
:10366000AC01BD01CF010895EE0FFF1F0590F4914D
:10367000E02D0994689401C0E8948F929F92CF93B3
:10368000DF930E94481BDF91CF919F908F90089508
:1036900088249924F401E401B0E49F93AA279A15A1
:1036A0008B049C04ED05FE05CF05D007A10798F417
:1036B000AD2FDC2FCF2FFE2FE92D982C892E982FA0
:1036C000872F762F652F542F432F322F2227B85064
:1036D00031F7BF9127C01B2EBF91BB27220F331F8D
:1036E000441F551F661F771F881F991F881C991C30
:1036F000EE1FFF1FCC1FDD1FAA1FBB1F8A149B04D8
:10370000EC05FD05CE05DF05A007B10748F08A18D6
:103710009B08EC09FD09CE09DF09A00BB10B216064
:103720001A94E1F62EF49401AF01BE01CD01000C14
:1037300008950F93083090F0982F872F762F652FDC
:10374000542F432F322F22270850F4CF220F331F3C
:10375000441F551F661F771F881F991F0A95B2F7D0
:103760000F91089597FB10F8169400080F930830F6
:1037700098F00850232F342F452F562F672F782F7E
:10378000892F902DF4CF0594979587957795679518
:1037900057954795379527950A95AAF70F9108955C
:1037A0005058BB27AA270E94E81B0C942B240E9488
:1037B0001D2438F00E94242420F039F49F3F19F48E
:1037C00026F40C941A240EF4E095E7FB0C941424D0
:1037D000E92F0E943C2458F3BA1762077307840745
:1037E000950720F079F4A6F50C945E240EF4E0958C
:1037F0000B2EBA2FA02D0B01B90190010C01CA01AB
:10380000A0011124FF27591B99F0593F50F4503E55
:1038100068F11A16F040A22F232F342F4427585F47
:10382000F3CF469537952795A795F0405395C9F75F
:103830007EF41F16BA0B620B730B840BBAF0915017
:10384000A1F0FF0FBB1F661F771F881FC2F70EC0B6
:10385000BA0F621F731F841F48F487957795679589
:10386000B795F7959E3F08F0B0CF9395880F08F075
:103870009927EE0F9795879508950E94441C6894A8
:10388000B1110C945F2408950E94442488F09F573E
:1038900098F0B92F9927B751B0F0E1F0660F771F74
:1038A000881F991F1AF0BA95C9F714C0B13091F06A
:1038B0000E945E24B1E008950C945E24672F782F57
:1038C0008827B85F39F0B93FCCF38695779567952F
:1038D000B395D9F73EF490958095709561957F4F9B
:1038E0008F4F9F4F08950E94802308F48FEF089513
:1038F0000E948023880B990B0895CF93DF93823029
:10390000910510F482E090E0E091E305F091E40588
:1039100020E030E0C0E0D0E0309711F140815181EB
:1039200048175907C0F04817590761F482819381FD
:10393000209719F09B838A832BC09093E405809392
:10394000E30526C02115310519F04217530718F475
:103950009A01BE01DF01EF010280F381E02DDCCF8F
:103960002115310509F1281B390B2430310590F45C
:1039700012968D919C9113976115710521F0FB01B1
:103980009383828304C09093E4058093E305FD0153
:10399000329644C0FD01E20FF31F819391932250B0
:1039A00031092D933C933AC02091E1053091E20515
:1039B000232B41F420910601309107013093E20559
:1039C0002093E10520910401309105012115310575
:1039D00041F42DB73EB74091080150910901241BD5
:1039E000350BE091E105F091E205E217F307A0F451
:1039F0002E1B3F0B2817390778F0AC014E5F5F4F45
:103A00002417350748F04E0F5F1F5093E20540938F
:103A1000E1058193919302C0E0E0F0E0CF01DF91F6
:103A2000CF9108950F931F93CF93DF93009709F4DD
:103A30008CC0FC013297138212820091E305109131
:103A4000E4050115110581F420813181820F931F56
:103A50002091E1053091E2052817390779F5F093B7
:103A6000E205E093E10571C0D80140E050E0AE17F7
:103A7000BF0750F412962D913C911397AD0121157B
:103A8000310509F1D901F3CF9D01DA013383228396
:103A900060817181860F971F8217930769F4EC018B
:103AA00028813981260F371F2E5F3F4F31832083B6
:103AB0008A819B8193838283452B29F4F093E405CB
:103AC000E093E30542C01396FC93EE931297ED0149
:103AD000499159919E01240F351FE217F30771F4A4
:103AE00080819181840F951F029611969C938E93ED
:103AF0008281938113969C938E931297E0E0F0E07D
:103B0000D80112968D919C911397009719F0F801A6
:103B10008C01F6CF8D919C9198012E5F3F4F820FC3
:103B2000931F2091E1053091E2052817390769F4C8
:103B3000309729F41092E4051092E30502C0138235
:103B400012821093E2050093E105DF91CF911F915E
:103B50000F910895A0E0B0E0E0EBFDE10C94742437
:103B6000EC01009721F4CB010E947D1CB8C0FC0140
:103B7000E60FF71F9C0122503109E217F30708F402
:103B8000ACC0D9010D911C91119706171707B0F021
:103B90000530110508F49FC0C801049786179707E0
:103BA00008F499C002501109061B170B01931193D9
:103BB0006D937C93CF010E94121D8DC05B01A01AF2
:103BC000B10A4C01800E911EA091E305B091E4056D
:103BD00040E050E0E12CF12C109709F44AC0A81500
:103BE000B905D1F56D907C901197630182E0C80E04
:103BF000D11CCA14DB0480F1A3014A195B096A01D4
:103C000082E0C80ED11C1296BC9012971396AC910C
:103C1000B5E0CB16D10440F0B282A3835183408338
:103C2000D9016D937C930AC00E5F1F4FC301800FB3
:103C3000911FF90191838083EB2DFA2FE114F10498
:103C400031F0D7011396FC93EE93129744C0F09392
:103C5000E405E093E3053FC08D919C9111974817CF
:103C6000590708F4AC017D0112960D90BC91A02D6E
:103C7000B3CF8091E1059091E20588159905E1F4B3
:103C800046175707C8F480910401909105010097E9
:103C900041F48DB79EB74091080150910901841BF2
:103CA000950BE817F907C8F4F093E205E093E105F6
:103CB000F901718360830FC0CB010E947D1C7C01E0
:103CC000009759F0A801BE010E94791ECE010E9402
:103CD000121DC70104C0CE0102C080E090E0CDB744
:103CE000DEB7EEE00C94902481E090E0F8940C9420
:103CF000B624FB01DC0102C001900D9241505040FE
:103D0000D8F70895FB01DC0101900D920020E1F746
:103D10000895AEE0B0E0EFE8FEE10C947E240D895A
:103D20001E898F89988D26E02C831A83098397FF3B
:103D300002C080E090E801979E838D83AE01455ECE
:103D40005F4F698D7A8DCE0101960E94DC1E4D81F8
:103D50005E8157FD0AC02F813885421753070CF446
:103D60009A01F801E20FF31F10822E96E4E00C9402
:103D70009A24AEE0B0E0EFEBFEE10C947E240D89D6
:103D80001E8986E08C831A8309838FEF9FE79E83C9
:103D90008D83AE01475E5F4F6F89788DCE010196AE
:103DA0000E94DC1E2F813885F801E20FF31F10827C
:103DB0002E96E4E00C949A24ACE0B0E0E2EEFEE152
:103DC0000C9470247C016B018A01FC01178216821D
:103DD000838181FFBDC1CE0101964C01F701938122
:103DE000F60193FD859193FF81916F01882309F47A
:103DF000ABC1853239F493FD859193FF81916F01B9
:103E0000853229F4B70190E00E94C420E7CF512CFD
:103E1000312C20E02032A0F48B3269F030F4803273
:103E200059F0833269F420612CC08D3239F080332F
:103E300039F4216026C02260246023C0286021C09C
:103E400027FD27C030ED380F3A3078F426FF06C042
:103E5000FAE05F9E300D1124532E13C08AE0389E85
:103E6000300D1124332E20620CC08E3221F426FD39
:103E70006BC1206406C08C3611F4206802C08836FD
:103E800041F4F60193FD859193FF81916F018111BA
:103E9000C1CF982F9F7D9554933028F40C5F1F4F0E
:103EA000FFE3F9830DC0833631F0833771F083353A
:103EB00009F05BC022C0F801808189830E5F1F4F2B
:103EC00044244394512C540115C03801F2E06F0E84
:103ED000711CF801A080B18026FF03C0652D70E041
:103EE00002C06FEF7FEFC5012C870E94B9202C0123
:103EF00083012C852F77222E17C03801F2E06F0E38
:103F0000711CF801A080B18026FF03C0652D70E010
:103F100002C06FEF7FEFC5012C870E94AE202C01FD
:103F20002C852068222E830123FC1BC0832D90E06A
:103F300048165906B0F4B70180E290E00E94C42010
:103F40003A94F4CFF50127FC859127FE81915F011A
:103F5000B70190E00E94C42031103A94F1E04F1A6A
:103F600051084114510471F7E5C0843611F08936C7
:103F700039F5F80127FF07C0608171818281938143
:103F80000C5F1F4F08C060817181072E000C880BE9
:103F9000990B0E5F1F4F2F76722E97FF09C09095D9
:103FA0008095709561957F4F8F4F9F4F2068722E3F
:103FB0002AE030E0A4010E94FC20A82EA81844C0EA
:103FC000853729F42F7EB22E2AE030E025C0F22F6B
:103FD000F97FBF2E8F36C1F018F4883579F0B4C060
:103FE000803719F0883721F0AFC02F2F2061B22E13
:103FF000B4FE0DC08B2D8460B82E09C024FF0AC00A
:104000009F2F9660B92E06C028E030E005C020E161
:1040100030E002C020E132E0F801B7FE07C0608165
:104020007181828193810C5F1F4F06C06081718115
:1040300080E090E00E5F1F4FA4010E94FC20A82E9C
:10404000A818FB2DFF777F2E76FE0BC0372D3E7F05
:10405000A51450F474FE0AC072FC08C0372D3E7ED1
:1040600005C0BA2C372D03C0BA2C01C0B52C34FFC3
:104070000DC0FE01EA0DF11D8081803311F4397EFF
:1040800009C032FF06C0B394B39404C0832F86786E
:1040900009F0B39433FD13C030FF06C05A2CB3149B
:1040A00018F4530C5B18B32CB31468F4B70180E216
:1040B00090E03C870E94C420B3943C85F5CFB314B4
:1040C00010F43B1801C0312C34FF12C0B70180E35B
:1040D00090E03C870E94C4203C8532FF17C031FD30
:1040E00003C088E790E002C088E590E0B7010CC00B
:1040F000832F867859F031FF02C08BE201C080E245
:1041000037FD8DE2B70190E00E94C420A51438F479
:10411000B70180E390E00E94C4205A94F7CFAA949C
:10412000F401EA0DF11D8081B70190E00E94C420E6
:10413000A110F5CF332009F451CEB70180E290E011
:104140000E94C4203A94F6CFF7018681978102C07D
:104150008FEF9FEF2C96E2E10C948C24FC010590EC
:10416000615070400110D8F7809590958E0F9F1F79
:104170000895FC016150704001900110D8F78095BE
:1041800090958E0F9F1F08950F931F93CF93DF93EA
:10419000FB01238121FD03C08FEF9FEF28C022FF89
:1041A00016C046815781248135814217530744F454
:1041B000A081B1819D012F5F3F4F318320838C937C
:1041C000268137812F5F3F4F3783268310C0EB0155
:1041D000092F182F0084F185E02D0995892BE1F630
:1041E0008E819F8101969F838E83812F902FDF91F7
:1041F000CF911F910F910895FA01AA27283051F10C
:10420000203181F1E8946F936E7F6E5F7F4F8F4F07
:104210009F4FAF4FB1E03ED0B4E03CD0670F781F66
:10422000891F9A1FA11D680F791F8A1F911DA11D4B
:104230006A0F711D811D911DA11D20D009F4689484
:104240003F912AE0269F11243019305D3193DEF62C
:10425000CF010895462F4770405D4193B3E00FD0E2
:10426000C9F7F6CF462F4F70405D4A3318F0495DCD
:1042700031FD4052419302D0A9F7EACFB4E0A695B0
:104280009795879577956795BA95C9F700976105D2
:10429000710508959B01AC010A2E06945795479528
:1042A00037952795BA95C9F7620F731F841F951F1D
:1042B000A01D0895662777270C94C021FC0188274C
:1042C0009927E89421912032E9F3293010F02E301B
:1042D000C8F32B3241F02D3239F4689404C00E94A7
:1042E000B821820F911D219120532A30C0F31EF472
:1042F000909581959F4F08951F93FC0199278827DA
:10430000BC01E89411911032E9F3193010F01E301D
:10431000C8F31B3251F01D3249F4689406C00E9464
:10432000A321610F711D811D911D119110531A3030
:10433000B0F33EF490958095709561957F4F8F4FC7
:104340009F4F1F910895592F482F372F262F660F03
:10435000771F881F991F660F771F881F991F620F8D
:10436000731F841F951F660F771F881F991F08955D
:104370007AE0979F902D879F802D910D11240895AD
:10438000A0E0B0E0E6ECF1E20C947424EC017B01D7
:104390006115710519F0DB018D939C938E010F5F00
:1043A0001F4F7880872D90E00E941D23892B11F0EC
:1043B000E801F4CFBDE27B1205C00F5F1F4F79808B
:1043C000C1E008C0EBE27E1204C08E010E5F1F4FF9
:1043D0007980C0E06801F1E0CF1AD10843E050E0F5
:1043E00062E372E0C6010E942623892BF1F4680182
:1043F00022E0C20ED11C45E050E06DE272E0C60141
:104400000E942623892B21F4680187E0C80ED11C65
:10441000E114F10419F0D701CD92DC92C111FFC073
:1044200060E070E080E89FE703C143E050E06AE2AB
:1044300072E0C6010E942623892B51F4E114F10495
:1044400009F4F2C00E5F1F4FF70111830083ECC027
:10445000680160E070E0CB0100E010E0F601D0ED13
:10446000D70DDA3058F52C2F2260622E2C2F2870B1
:10447000C2FF05C0211128C00F5F1F4F25C0222396
:1044800011F001501109A5E0B0E09B01AC010E94C0
:1044900065244B015C01880C991CAA1CBB1CC5013E
:1044A000B4016D0F711D811D911D6839A9E97A074D
:1044B0008A07A9E19A0740F0C66005C0DE3F51F4C3
:1044C000C3FD44C0C8606C2EBFEFCB1ADB0A7080FE
:1044D000C62DC4CF2D2F2F7D2531C1F540814D3202
:1044E00011F4C06106C04B3221F0319621E030E07A
:1044F00006C03296D60111964C9122E030E0A0ED34
:10450000A40FAA3018F0E21BF30B20C040E050E0EB
:104510004038BCE05B075CF49A01220F331F220F86
:10452000331F420F531F440F551F4A0F511D319621
:10453000DF0111972C91A0EDA20FAA3048F3C4FF20
:1045400003C0519541955109040F151FC1FF07C0C4
:10455000E114F10421F03197D701ED93FC930E940F
:104560004323C370C33019F06B017C0106C06B019B
:104570007C01F7FAF094F7F8F09420E030E0A9011C
:10458000C701B6010E943E23882309F445C017FFE6
:1045900006C0119501951109C9E4D2E002C0C1E637
:1045A000D2E05E01B8E1AB1AB1084601BE2DAF2DD5
:1045B00090E2E92EF12C0E151F0584F0FE012591E5
:1045C000359145915491B4018B2F9A2F0E94A423C9
:1045D0004B01B82FA92F0E191F09EDCF2497F59481
:1045E000E794CA15DB0539F76401EB2EFA2E8E2D00
:1045F000880F8F2D881F8F3F49F020E030E0A90100
:10460000C701B6010E943E23811106C082E290E0FC
:104610009093E6058093E505C701B60109C060E007
:1046200070E080E89FEF04C060E070E080EC9FE7FE
:10463000CDB7DEB7EEE00C94902491110C941124C8
:10464000803219F089508550C8F70895FB01DC01CC
:104650004150504088F08D9181341CF08B350CF422
:10466000805E659161341CF06B350CF4605E861BD6
:10467000611171F3990B0895881BFCCF0E94802370
:1046800008F481E00895E89409C097FB3EF4909502
:104690008095709561957F4F8F4F9F4F9923A9F01B
:1046A000F92F96E9BB279395F695879577956795AA
:1046B000B795F111F8CFFAF4BB0F11F460FF1BC0EE
:1046C0006F5F7F4F8F4F9F4F16C0882311F096E981
:1046D00011C0772321F09EE8872F762F05C066232F
:1046E00071F096E8862F70E060E02AF09A95660FE8
:1046F000771F881FDAF7880F9695879597F90895A1
:10470000990F0008550FAA0BE0E8FEEF16161706E2
:10471000E807F907C0F012161306E407F50798F04A
:10472000621B730B840B950B39F40A2661F0232B63
:10473000242B252B21F408950A2609F4A140A695DF
:104740008FEF811D811D08950E94B7230C942B24A7
:104750000E941D2438F00E94242420F0952311F09B
:104760000C9414240C941A2411240C945F240E9499
:104770003C2470F3959FC1F3950F50E0551F629F45
:10478000F001729FBB27F00DB11D639FAA27F00DAA
:10479000B11DAA1F649F6627B00DA11D661F829FD1
:1047A0002227B00DA11D621F739FB00DA11D621FB6
:1047B000839FA00D611D221F749F3327A00D611DD3
:1047C000231F849F600D211D822F762F6A2F1124B5
:1047D0009F5750409AF0F1F088234AF0EE0FFF1FE8
:1047E000BB1F661F771F881F91505040A9F79E3F3F
:1047F000510580F00C9414240C945F245F3FE4F383
:10480000983ED4F3869577956795B795F795E79594
:104810009F5FC1F7FE2B880F911D9695879597F99D
:10482000089599278827089597F99F6780E870E091
:1048300060E008959FEF80EC089500240A94161616
:10484000170618060906089500240A94121613067E
:10485000140605060895092E0394000C11F488230C
:1048600052F0BB0F40F4BF2B11F460FF04C06F5F28
:104870007F4F8F4F9F4F089557FD9058440F551FFE
:1048800059F05F3F71F04795880F97FB991F61F0D2
:104890009F3F79F087950895121613061406551F49
:1048A000F2CF4695F1DF08C0161617061806991FB5
:1048B000F1CF86957105610508940895E894BB27AA
:1048C00066277727CB0197F908950E94A724A59F13
:1048D000900DB49F900DA49F800D911D11240895FB
:1048E0002F923F924F925F926F927F928F929F9200
:1048F000AF92BF92CF92DF92EF92FF920F931F93EE
:10490000CF93DF93CDB7DEB7CA1BDB0B0FB6F8949E
:10491000DEBF0FBECDBF09942A88398848885F84DE
:104920006E847D848C849B84AA84B984C884DF804F
:10493000EE80FD800C811B81AA81B981CE0FD11D33
:104940000FB6F894DEBF0FBECDBFED010895A29F54
:10495000B001B39FC001A39F700D811D1124911D53
:10496000B29F700D811D1124911D089511E0C4E3C3
:10497000D1E004C0FE010E94341B2196C533D1074B
:06498000C9F7F894FFCF17
:104986007B027B020000E7058000585858585858AB
:104996005831303000000000950284068F0BAC0BB6
:1049A600990B940200000000AD075F01120BFA0A92
:1049B600E70A930200000000E3015F01AC018A01EF
:1049C6009E012A02000000007D02430932091709F0
:1049D600E9087C0200000000DE025F01DE02DE0262
:1049E600DE02DE0200000000DE025F0100000000C1
:1049F600DE07CA0698077E076907CA072F7661721F
:104A06002F6176722F66775F76657273696F6E00B7
:104A160075636900676574006C6F726177616E2EED
:104A2600726164696F2E72785F6672657175656E04
:104A36006379006C6F726177616E2E726164696F63
:104A46002E54585346006C6F726177616E2E7261F8
:104A560064696F2E636F6465726174650073697A49
:104A6600653D002F7661722F696F742F64617461E2
:104A7600002578257825782578002F7661722F69AC
:104A86006F742F2573002F7661722F696F742F64F0
:104A96006C6461746100726D002D7266006C6F72D9
:104AA6006177616E2E726164696F2E74785F6672CB
:104AB600657175656E6379006C6F726177616E2ED4
:104AC600726164696F2E5346006C6F726177616E16
:104AD6002E726164696F2E707265616D626C65001D
:104AE6006C6F726177616E2E726164696F2E4257C8
:104AF600002F7661722F696F742F63666764617425
:104B06006100727373693D000D0A00FE0073696EE1
:104B1600676C655F706B745F6677645F76303032A2
:104B2600006E616E00696E66006F7666002E006C20
:024B360073000A
:00000001FF
